{
  "_format": "hh-sol-artifact-1",
  "contractName": "RATStakingPool",
  "sourceName": "contracts/RATStakingPool.sol",
  "abi": [
    {
      "inputs": [
        {
          "internalType": "address",
          "name": "_ratToken",
          "type": "address"
        },
        {
          "internalType": "address",
          "name": "_rewardToken",
          "type": "address"
        },
        {
          "internalType": "address",
          "name": "initialOwner",
          "type": "address"
        }
      ],
      "stateMutability": "nonpayable",
      "type": "constructor"
    },
    {
      "inputs": [],
      "name": "EnforcedPause",
      "type": "error"
    },
    {
      "inputs": [],
      "name": "ExpectedPause",
      "type": "error"
    },
    {
      "inputs": [
        {
          "internalType": "address",
          "name": "owner",
          "type": "address"
        }
      ],
      "name": "OwnableInvalidOwner",
      "type": "error"
    },
    {
      "inputs": [
        {
          "internalType": "address",
          "name": "account",
          "type": "address"
        }
      ],
      "name": "OwnableUnauthorizedAccount",
      "type": "error"
    },
    {
      "inputs": [],
      "name": "ReentrancyGuardReentrantCall",
      "type": "error"
    },
    {
      "inputs": [
        {
          "internalType": "address",
          "name": "token",
          "type": "address"
        }
      ],
      "name": "SafeERC20FailedOperation",
      "type": "error"
    },
    {
      "anonymous": false,
      "inputs": [
        {
          "indexed": true,
          "internalType": "address",
          "name": "previousOwner",
          "type": "address"
        },
        {
          "indexed": true,
          "internalType": "address",
          "name": "newOwner",
          "type": "address"
        }
      ],
      "name": "OwnershipTransferred",
      "type": "event"
    },
    {
      "anonymous": false,
      "inputs": [
        {
          "indexed": false,
          "internalType": "address",
          "name": "account",
          "type": "address"
        }
      ],
      "name": "Paused",
      "type": "event"
    },
    {
      "anonymous": false,
      "inputs": [
        {
          "indexed": false,
          "internalType": "uint256",
          "name": "newRate",
          "type": "uint256"
        }
      ],
      "name": "RewardRateUpdated",
      "type": "event"
    },
    {
      "anonymous": false,
      "inputs": [
        {
          "indexed": true,
          "internalType": "address",
          "name": "user",
          "type": "address"
        },
        {
          "indexed": false,
          "internalType": "uint256",
          "name": "amount",
          "type": "uint256"
        }
      ],
      "name": "RewardsClaimed",
      "type": "event"
    },
    {
      "anonymous": false,
      "inputs": [
        {
          "indexed": true,
          "internalType": "address",
          "name": "user",
          "type": "address"
        },
        {
          "indexed": false,
          "internalType": "uint256",
          "name": "amount",
          "type": "uint256"
        },
        {
          "indexed": false,
          "internalType": "uint256",
          "name": "timestamp",
          "type": "uint256"
        }
      ],
      "name": "Staked",
      "type": "event"
    },
    {
      "anonymous": false,
      "inputs": [
        {
          "indexed": false,
          "internalType": "address",
          "name": "account",
          "type": "address"
        }
      ],
      "name": "Unpaused",
      "type": "event"
    },
    {
      "anonymous": false,
      "inputs": [
        {
          "indexed": true,
          "internalType": "address",
          "name": "user",
          "type": "address"
        },
        {
          "indexed": false,
          "internalType": "uint256",
          "name": "amount",
          "type": "uint256"
        },
        {
          "indexed": false,
          "internalType": "uint256",
          "name": "penalty",
          "type": "uint256"
        }
      ],
      "name": "Unstaked",
      "type": "event"
    },
    {
      "anonymous": false,
      "inputs": [
        {
          "indexed": false,
          "internalType": "uint256",
          "name": "amount",
          "type": "uint256"
        },
        {
          "indexed": true,
          "internalType": "address",
          "name": "contributor",
          "type": "address"
        }
      ],
      "name": "YieldAdded",
      "type": "event"
    },
    {
      "inputs": [],
      "name": "EARLY_UNSTAKE_PENALTY",
      "outputs": [
        {
          "internalType": "uint256",
          "name": "",
          "type": "uint256"
        }
      ],
      "stateMutability": "view",
      "type": "function"
    },
    {
      "inputs": [],
      "name": "MIN_STAKE_AMOUNT",
      "outputs": [
        {
          "internalType": "uint256",
          "name": "",
          "type": "uint256"
        }
      ],
      "stateMutability": "view",
      "type": "function"
    },
    {
      "inputs": [],
      "name": "MIN_STAKE_DURATION",
      "outputs": [
        {
          "internalType": "uint256",
          "name": "",
          "type": "uint256"
        }
      ],
      "stateMutability": "view",
      "type": "function"
    },
    {
      "inputs": [
        {
          "internalType": "uint256",
          "name": "amount",
          "type": "uint256"
        }
      ],
      "name": "addYield",
      "outputs": [],
      "stateMutability": "nonpayable",
      "type": "function"
    },
    {
      "inputs": [
        {
          "internalType": "address",
          "name": "account",
          "type": "address"
        },
        {
          "internalType": "uint256",
          "name": "amount",
          "type": "uint256"
        }
      ],
      "name": "calculatePenalty",
      "outputs": [
        {
          "internalType": "uint256",
          "name": "",
          "type": "uint256"
        }
      ],
      "stateMutability": "view",
      "type": "function"
    },
    {
      "inputs": [],
      "name": "claimRewards",
      "outputs": [],
      "stateMutability": "nonpayable",
      "type": "function"
    },
    {
      "inputs": [
        {
          "internalType": "address",
          "name": "account",
          "type": "address"
        }
      ],
      "name": "earned",
      "outputs": [
        {
          "internalType": "uint256",
          "name": "",
          "type": "uint256"
        }
      ],
      "stateMutability": "view",
      "type": "function"
    },
    {
      "inputs": [
        {
          "internalType": "address",
          "name": "token",
          "type": "address"
        },
        {
          "internalType": "uint256",
          "name": "amount",
          "type": "uint256"
        }
      ],
      "name": "emergencyWithdraw",
      "outputs": [],
      "stateMutability": "nonpayable",
      "type": "function"
    },
    {
      "inputs": [],
      "name": "getPoolStats",
      "outputs": [
        {
          "internalType": "uint256",
          "name": "totalStaked",
          "type": "uint256"
        },
        {
          "internalType": "uint256",
          "name": "totalRewards",
          "type": "uint256"
        },
        {
          "internalType": "uint256",
          "name": "currentRewardRate",
          "type": "uint256"
        },
        {
          "internalType": "uint256",
          "name": "totalStakers",
          "type": "uint256"
        }
      ],
      "stateMutability": "view",
      "type": "function"
    },
    {
      "inputs": [
        {
          "internalType": "address",
          "name": "account",
          "type": "address"
        }
      ],
      "name": "getStakeInfo",
      "outputs": [
        {
          "internalType": "uint256",
          "name": "stakedAmount",
          "type": "uint256"
        },
        {
          "internalType": "uint256",
          "name": "stakingTime",
          "type": "uint256"
        },
        {
          "internalType": "uint256",
          "name": "stakingDuration",
          "type": "uint256"
        },
        {
          "internalType": "uint256",
          "name": "earnedRewards",
          "type": "uint256"
        },
        {
          "internalType": "bool",
          "name": "canUnstakeWithoutPenalty",
          "type": "bool"
        }
      ],
      "stateMutability": "view",
      "type": "function"
    },
    {
      "inputs": [],
      "name": "owner",
      "outputs": [
        {
          "internalType": "address",
          "name": "",
          "type": "address"
        }
      ],
      "stateMutability": "view",
      "type": "function"
    },
    {
      "inputs": [],
      "name": "pause",
      "outputs": [],
      "stateMutability": "nonpayable",
      "type": "function"
    },
    {
      "inputs": [],
      "name": "paused",
      "outputs": [
        {
          "internalType": "bool",
          "name": "",
          "type": "bool"
        }
      ],
      "stateMutability": "view",
      "type": "function"
    },
    {
      "inputs": [],
      "name": "poolInfo",
      "outputs": [
        {
          "internalType": "uint256",
          "name": "totalStaked",
          "type": "uint256"
        },
        {
          "internalType": "uint256",
          "name": "totalRewards",
          "type": "uint256"
        },
        {
          "internalType": "uint256",
          "name": "rewardPerTokenStored",
          "type": "uint256"
        },
        {
          "internalType": "uint256",
          "name": "lastUpdateTime",
          "type": "uint256"
        },
        {
          "internalType": "uint256",
          "name": "rewardRate",
          "type": "uint256"
        }
      ],
      "stateMutability": "view",
      "type": "function"
    },
    {
      "inputs": [],
      "name": "ratToken",
      "outputs": [
        {
          "internalType": "contract IERC20Extended",
          "name": "",
          "type": "address"
        }
      ],
      "stateMutability": "view",
      "type": "function"
    },
    {
      "inputs": [],
      "name": "renounceOwnership",
      "outputs": [],
      "stateMutability": "nonpayable",
      "type": "function"
    },
    {
      "inputs": [],
      "name": "rewardPerToken",
      "outputs": [
        {
          "internalType": "uint256",
          "name": "",
          "type": "uint256"
        }
      ],
      "stateMutability": "view",
      "type": "function"
    },
    {
      "inputs": [],
      "name": "rewardToken",
      "outputs": [
        {
          "internalType": "contract IERC20Extended",
          "name": "",
          "type": "address"
        }
      ],
      "stateMutability": "view",
      "type": "function"
    },
    {
      "inputs": [
        {
          "internalType": "uint256",
          "name": "_rewardRate",
          "type": "uint256"
        }
      ],
      "name": "setRewardRate",
      "outputs": [],
      "stateMutability": "nonpayable",
      "type": "function"
    },
    {
      "inputs": [
        {
          "internalType": "uint256",
          "name": "amount",
          "type": "uint256"
        }
      ],
      "name": "stake",
      "outputs": [],
      "stateMutability": "nonpayable",
      "type": "function"
    },
    {
      "inputs": [
        {
          "internalType": "address",
          "name": "",
          "type": "address"
        }
      ],
      "name": "stakes",
      "outputs": [
        {
          "internalType": "uint256",
          "name": "amount",
          "type": "uint256"
        },
        {
          "internalType": "uint256",
          "name": "stakingTime",
          "type": "uint256"
        },
        {
          "internalType": "uint256",
          "name": "lastRewardClaim",
          "type": "uint256"
        },
        {
          "internalType": "uint256",
          "name": "accumulatedRewards",
          "type": "uint256"
        }
      ],
      "stateMutability": "view",
      "type": "function"
    },
    {
      "inputs": [
        {
          "internalType": "address",
          "name": "newOwner",
          "type": "address"
        }
      ],
      "name": "transferOwnership",
      "outputs": [],
      "stateMutability": "nonpayable",
      "type": "function"
    },
    {
      "inputs": [],
      "name": "unpause",
      "outputs": [],
      "stateMutability": "nonpayable",
      "type": "function"
    },
    {
      "inputs": [
        {
          "internalType": "uint256",
          "name": "amount",
          "type": "uint256"
        }
      ],
      "name": "unstake",
      "outputs": [],
      "stateMutability": "nonpayable",
      "type": "function"
    },
    {
      "inputs": [
        {
          "internalType": "address",
          "name": "",
          "type": "address"
        }
      ],
      "name": "userRewardPerTokenPaid",
      "outputs": [
        {
          "internalType": "uint256",
          "name": "",
          "type": "uint256"
        }
      ],
      "stateMutability": "view",
      "type": "function"
    }
  ],
  "bytecode": "0x60c06040523480156200001157600080fd5b5060405162001336380380620013368339810160408190526200003491620001bb565b806001600160a01b0381166200006557604051631e4fbdf760e01b8152600060048201526024015b60405180910390fd5b62000070816200014e565b50600180556001600160a01b038316620000cd5760405162461bcd60e51b815260206004820152601960248201527f496e76616c69642052415420746f6b656e20616464726573730000000000000060448201526064016200005c565b6001600160a01b038216620001255760405162461bcd60e51b815260206004820152601c60248201527f496e76616c69642072657761726420746f6b656e20616464726573730000000060448201526064016200005c565b506001600160a01b039182166080521660a05242600655670de0b6b3a764000060075562000205565b600080546001600160a01b038381166001600160a01b0319831681178455604051919092169283917f8be0079c531659141344cd1fd0a4f28419497f9722a3daafe3b4186f6b6457e09190a35050565b80516001600160a01b0381168114620001b657600080fd5b919050565b600080600060608486031215620001d157600080fd5b620001dc846200019e565b9250620001ec602085016200019e565b9150620001fc604085016200019e565b90509250925092565b60805160a0516110ef62000247600039600081816103da015281816107ff0152610bea01526000818161037b015281816106930152610a3d01526110ef6000f3fe608060405234801561001057600080fd5b50600436106101725760003560e01c80638b876347116100de578063c345315311610097578063cd3daf9d11610071578063cd3daf9d146103b0578063e0c570ba146103b8578063f2fde38b146103c2578063f7c618c1146103d557600080fd5b8063c345315314610339578063c353a65014610376578063c8b2b5461461039d57600080fd5b80638b876347146102ab5780638da5cb5b146102cb57806395ccea67146102f05780639e447fc614610303578063a694fc3a14610316578063bbb851881461032957600080fd5b8063372500ab11610130578063372500ab146102335780633f4ba83a1461023b5780635a2f3d09146102435780635c975abb14610285578063715018a61461029b5780638456cb59146102a357600080fd5b80628cc2621461017757806316934fc41461019d5780631dc0da1c146101f25780631f4531f51461020557806327ed71881461020e5780632e17de781461021e575b600080fd5b61018a610185366004610fdf565b6103fc565b6040519081526020015b60405180910390f35b6101d26101ab366004610fdf565b60086020526000908152604090208054600182015460028301546003909301549192909184565b604080519485526020850193909352918301526060820152608001610194565b61018a610200366004611001565b61047c565b61018a6103e881565b61018a68056bc75e2d6310000081565b61023161022c36600461102b565b6104db565b005b610231610726565b610231610870565b60035460045460055460065460075461025d949392919085565b604080519586526020860194909452928401919091526060830152608082015260a001610194565b60025460ff166040519015158152602001610194565b610231610880565b610231610892565b61018a6102b9366004610fdf565b60096020526000908152604090205481565b6000546001600160a01b03165b6040516001600160a01b039091168152602001610194565b6102316102fe366004611001565b6108a2565b61023161031136600461102b565b6108d4565b61023161032436600461102b565b610970565b60035460045460075460006101d2565b61034c610347366004610fdf565b610b01565b6040805195865260208601949094529284019190915260608301521515608082015260a001610194565b6102d87f000000000000000000000000000000000000000000000000000000000000000081565b6102316103ab36600461102b565b610b8d565b61018a610c99565b61018a62093a8081565b6102316103d0366004610fdf565b610cf7565b6102d87f000000000000000000000000000000000000000000000000000000000000000081565b6001600160a01b0381166000908152600860209081526040808320600301546009909252822054670de0b6b3a764000090610435610c99565b61043f919061105a565b6001600160a01b038516600090815260086020526040902054610462919061106d565b61046c9190611084565b61047691906110a6565b92915050565b6001600160a01b03821660009081526008602052604081206001015481906104a4904261105a565b905062093a8081106104ba576000915050610476565b6127106104c96103e88561106d565b6104d39190611084565b949350505050565b6104e3610d32565b336104ec610c99565b600555426006556001600160a01b0381161561053a5761050b816103fc565b6001600160a01b0382166000908152600860209081526040808320600301939093556005546009909152919020555b6000821161058f5760405162461bcd60e51b815260206004820152601d60248201527f416d6f756e74206d7573742062652067726561746572207468616e203000000060448201526064015b60405180910390fd5b336000908152600860205260409020548211156105ee5760405162461bcd60e51b815260206004820152601a60248201527f496e73756666696369656e74207374616b656420616d6f756e740000000000006044820152606401610586565b33600090815260086020526040812060010154819061060d904261105a565b905062093a80811015610636576127106106296103e88661106d565b6106339190611084565b91505b6000610642838661105a565b3360009081526008602052604081208054929350879290919061066690849061105a565b90915550506003805486919060009061068090849061105a565b909155506106ba90506001600160a01b037f0000000000000000000000000000000000000000000000000000000000000000163383610d5c565b82156106db5782600360010160008282546106d591906110a6565b90915550505b604080518281526020810185905233917f7fc4727e062e336010f2c282598ef5f14facb3de68cf8195c2f23e1454b2b74e910160405180910390a25050505061072360018055565b50565b61072e610d32565b33610737610c99565b600555426006556001600160a01b0381161561078557610756816103fc565b6001600160a01b0382166000908152600860209081526040808320600301939093556005546009909152919020555b33600090815260086020526040902060030154806107db5760405162461bcd60e51b81526020600482015260136024820152724e6f207265776172647320746f20636c61696d60681b6044820152606401610586565b33600081815260086020526040812060038101919091554260029091015561082e907f00000000000000000000000000000000000000000000000000000000000000006001600160a01b03169083610d5c565b60405181815233907ffc30cddea38e2bf4d6ea7d3f9ed3b6ad7f176419f4963bd81318067a4aee73fe9060200160405180910390a2505061086e60018055565b565b610878610dc0565b61086e610ded565b610888610dc0565b61086e6000610e3f565b61089a610dc0565b61086e610e8f565b6108aa610dc0565b6108d06108bf6000546001600160a01b031690565b6001600160a01b0384169083610d5c565b5050565b6108dc610dc0565b60006108e6610c99565b600555426006556001600160a01b0381161561093457610905816103fc565b6001600160a01b0382166000908152600860209081526040808320600301939093556005546009909152919020555b60078290556040518281527f41d466ebd06fb97e7786086ac8b69b7eb7da798592036251291d34e9791cde019060200160405180910390a15050565b610978610ecc565b610980610d32565b33610989610c99565b600555426006556001600160a01b038116156109d7576109a8816103fc565b6001600160a01b0382166000908152600860209081526040808320600301939093556005546009909152919020555b68056bc75e2d63100000821015610a305760405162461bcd60e51b815260206004820152601a60248201527f416d6f756e742062656c6f77206d696e696d756d207374616b650000000000006044820152606401610586565b610a656001600160a01b037f000000000000000000000000000000000000000000000000000000000000000016333085610ef0565b3360009081526008602052604081208054849290610a849084906110a6565b9091555050336000908152600860205260408120426001820181905560029091015560038054849290610ab89084906110a6565b90915550506040805183815242602082015233917f1449c6dd7851abc30abf37f57715f492010519147cc2652fbc38202c18a6ee90910160405180910390a25061072360018055565b6001600160a01b038116600090815260086020908152604080832081516080810183528154815260018201549381018490526002820154928101929092526003015460608201528291829182918291908290610b5d904261105a565b8251602084015191925062093a808310159183610b798c6103fc565b929c919b5099509097509095509350505050565b60008111610bdd5760405162461bcd60e51b815260206004820152601d60248201527f416d6f756e74206d7573742062652067726561746572207468616e20300000006044820152606401610586565b610c126001600160a01b037f000000000000000000000000000000000000000000000000000000000000000016333084610ef0565b8060036001016000828254610c2791906110a6565b909155505060035415610c61576000610c4362093a8083611084565b90508060036004016000828254610c5a91906110a6565b9091555050505b60405181815233907fad08afe24fece4f33553585bdf367069218f01fc2e968527f683491f89709dd09060200160405180910390a250565b6003546000908103610cac575060055490565b600354600754600654610cbf904261105a565b610cc9919061106d565b610cdb90670de0b6b3a764000061106d565b610ce59190611084565b600554610cf291906110a6565b905090565b610cff610dc0565b6001600160a01b038116610d2957604051631e4fbdf760e01b815260006004820152602401610586565b61072381610e3f565b600260015403610d5557604051633ee5aeb560e01b815260040160405180910390fd5b6002600155565b6040516001600160a01b03838116602483015260448201839052610dbb91859182169063a9059cbb906064015b604051602081830303815290604052915060e01b6020820180516001600160e01b038381831617835250505050610f2f565b505050565b6000546001600160a01b0316331461086e5760405163118cdaa760e01b8152336004820152602401610586565b610df5610fa0565b6002805460ff191690557f5db9ee0a495bf2e6ff9c91a7834c1ba4fdd244a5e8aa4e537bd38aeae4b073aa335b6040516001600160a01b03909116815260200160405180910390a1565b600080546001600160a01b038381166001600160a01b0319831681178455604051919092169283917f8be0079c531659141344cd1fd0a4f28419497f9722a3daafe3b4186f6b6457e09190a35050565b610e97610ecc565b6002805460ff191660011790557f62e78cea01bee320cd4e420270b5ea74000d11b0c9f74754ebdbfc544b05a258610e223390565b60025460ff161561086e5760405163d93c066560e01b815260040160405180910390fd5b6040516001600160a01b038481166024830152838116604483015260648201839052610f299186918216906323b872dd90608401610d89565b50505050565b600080602060008451602086016000885af180610f52576040513d6000823e3d81fd5b50506000513d91508115610f6a578060011415610f77565b6001600160a01b0384163b155b15610f2957604051635274afe760e01b81526001600160a01b0385166004820152602401610586565b60025460ff1661086e57604051638dfc202b60e01b815260040160405180910390fd5b80356001600160a01b0381168114610fda57600080fd5b919050565b600060208284031215610ff157600080fd5b610ffa82610fc3565b9392505050565b6000806040838503121561101457600080fd5b61101d83610fc3565b946020939093013593505050565b60006020828403121561103d57600080fd5b5035919050565b634e487b7160e01b600052601160045260246000fd5b8181038181111561047657610476611044565b808202811582820484141761047657610476611044565b6000826110a157634e487b7160e01b600052601260045260246000fd5b500490565b808201808211156104765761047661104456fea264697066735822122043dd28f62a4cb8d96d62810923ced94e3819ba594b7c24bda08514920045ab5b64736f6c63430008140033",
  "linkReferences": {},
  "deployedLinkReferences": {}
}