{
  "_format": "hh-sol-artifact-1",
  "contractName": "LiquidityAggregator",
  "sourceName": "contracts/LiquidityAggregator.sol",
  "abi": [
    {
      "inputs": [
        {
          "internalType": "address",
          "name": "_usdtAddress",
          "type": "address"
        },
        {
          "internalType": "address",
          "name": "initialOwner",
          "type": "address"
        }
      ],
      "stateMutability": "nonpayable",
      "type": "constructor"
    },
    {
      "inputs": [
        {
          "internalType": "address",
          "name": "owner",
          "type": "address"
        }
      ],
      "name": "OwnableInvalidOwner",
      "type": "error"
    },
    {
      "inputs": [
        {
          "internalType": "address",
          "name": "account",
          "type": "address"
        }
      ],
      "name": "OwnableUnauthorizedAccount",
      "type": "error"
    },
    {
      "inputs": [],
      "name": "ReentrancyGuardReentrantCall",
      "type": "error"
    },
    {
      "inputs": [
        {
          "internalType": "address",
          "name": "token",
          "type": "address"
        }
      ],
      "name": "SafeERC20FailedOperation",
      "type": "error"
    },
    {
      "anonymous": false,
      "inputs": [
        {
          "indexed": true,
          "internalType": "address",
          "name": "router",
          "type": "address"
        },
        {
          "indexed": false,
          "internalType": "bool",
          "name": "isActive",
          "type": "bool"
        },
        {
          "indexed": false,
          "internalType": "uint256",
          "name": "priority",
          "type": "uint256"
        },
        {
          "indexed": false,
          "internalType": "string",
          "name": "name",
          "type": "string"
        }
      ],
      "name": "DEXConfigured",
      "type": "event"
    },
    {
      "anonymous": false,
      "inputs": [
        {
          "indexed": true,
          "internalType": "address",
          "name": "fromToken",
          "type": "address"
        },
        {
          "indexed": false,
          "internalType": "uint256",
          "name": "amountIn",
          "type": "uint256"
        },
        {
          "indexed": false,
          "internalType": "uint256",
          "name": "usdtOut",
          "type": "uint256"
        },
        {
          "indexed": false,
          "internalType": "address",
          "name": "dexUsed",
          "type": "address"
        },
        {
          "indexed": false,
          "internalType": "string",
          "name": "dexName",
          "type": "string"
        }
      ],
      "name": "LiquidityAggregated",
      "type": "event"
    },
    {
      "anonymous": false,
      "inputs": [
        {
          "indexed": true,
          "internalType": "address",
          "name": "previousOwner",
          "type": "address"
        },
        {
          "indexed": true,
          "internalType": "address",
          "name": "newOwner",
          "type": "address"
        }
      ],
      "name": "OwnershipTransferred",
      "type": "event"
    },
    {
      "anonymous": false,
      "inputs": [
        {
          "indexed": false,
          "internalType": "uint256",
          "name": "oldTolerance",
          "type": "uint256"
        },
        {
          "indexed": false,
          "internalType": "uint256",
          "name": "newTolerance",
          "type": "uint256"
        }
      ],
      "name": "SlippageToleranceUpdated",
      "type": "event"
    },
    {
      "anonymous": false,
      "inputs": [
        {
          "indexed": false,
          "internalType": "address",
          "name": "oldPool",
          "type": "address"
        },
        {
          "indexed": false,
          "internalType": "address",
          "name": "newPool",
          "type": "address"
        }
      ],
      "name": "StakingPoolUpdated",
      "type": "event"
    },
    {
      "inputs": [],
      "name": "USDT",
      "outputs": [
        {
          "internalType": "contract IERC20Extended",
          "name": "",
          "type": "address"
        }
      ],
      "stateMutability": "view",
      "type": "function"
    },
    {
      "inputs": [
        {
          "internalType": "address",
          "name": "router",
          "type": "address"
        },
        {
          "internalType": "address",
          "name": "fromToken",
          "type": "address"
        },
        {
          "internalType": "uint256",
          "name": "amountIn",
          "type": "uint256"
        }
      ],
      "name": "_getQuoteFromDEX",
      "outputs": [
        {
          "internalType": "uint256",
          "name": "amountOut",
          "type": "uint256"
        }
      ],
      "stateMutability": "view",
      "type": "function"
    },
    {
      "inputs": [
        {
          "internalType": "uint256",
          "name": "",
          "type": "uint256"
        }
      ],
      "name": "activeDEXes",
      "outputs": [
        {
          "internalType": "address",
          "name": "",
          "type": "address"
        }
      ],
      "stateMutability": "view",
      "type": "function"
    },
    {
      "inputs": [
        {
          "internalType": "address",
          "name": "fromToken",
          "type": "address"
        },
        {
          "internalType": "uint256",
          "name": "amountIn",
          "type": "uint256"
        },
        {
          "internalType": "uint256",
          "name": "amountOutMin",
          "type": "uint256"
        }
      ],
      "name": "aggregateLiquidity",
      "outputs": [
        {
          "components": [
            {
              "internalType": "uint256",
              "name": "amountOut",
              "type": "uint256"
            },
            {
              "internalType": "address",
              "name": "dexUsed",
              "type": "address"
            },
            {
              "internalType": "string",
              "name": "dexName",
              "type": "string"
            },
            {
              "internalType": "uint256",
              "name": "gasUsed",
              "type": "uint256"
            }
          ],
          "internalType": "struct LiquidityAggregator.SwapResult",
          "name": "swapResult",
          "type": "tuple"
        }
      ],
      "stateMutability": "nonpayable",
      "type": "function"
    },
    {
      "inputs": [
        {
          "internalType": "address",
          "name": "router",
          "type": "address"
        },
        {
          "internalType": "bool",
          "name": "isActive",
          "type": "bool"
        },
        {
          "internalType": "uint256",
          "name": "priority",
          "type": "uint256"
        },
        {
          "internalType": "string",
          "name": "name",
          "type": "string"
        }
      ],
      "name": "configureDEX",
      "outputs": [],
      "stateMutability": "nonpayable",
      "type": "function"
    },
    {
      "inputs": [
        {
          "internalType": "address",
          "name": "",
          "type": "address"
        }
      ],
      "name": "dexConfigs",
      "outputs": [
        {
          "internalType": "address",
          "name": "router",
          "type": "address"
        },
        {
          "internalType": "bool",
          "name": "isActive",
          "type": "bool"
        },
        {
          "internalType": "uint256",
          "name": "priority",
          "type": "uint256"
        },
        {
          "internalType": "string",
          "name": "name",
          "type": "string"
        }
      ],
      "stateMutability": "view",
      "type": "function"
    },
    {
      "inputs": [
        {
          "internalType": "address",
          "name": "token",
          "type": "address"
        },
        {
          "internalType": "uint256",
          "name": "amount",
          "type": "uint256"
        }
      ],
      "name": "emergencyWithdraw",
      "outputs": [],
      "stateMutability": "nonpayable",
      "type": "function"
    },
    {
      "inputs": [],
      "name": "getActiveDEXes",
      "outputs": [
        {
          "internalType": "address[]",
          "name": "",
          "type": "address[]"
        }
      ],
      "stateMutability": "view",
      "type": "function"
    },
    {
      "inputs": [
        {
          "internalType": "address",
          "name": "fromToken",
          "type": "address"
        },
        {
          "internalType": "uint256",
          "name": "amountIn",
          "type": "uint256"
        }
      ],
      "name": "getBestQuote",
      "outputs": [
        {
          "internalType": "address",
          "name": "bestDEX",
          "type": "address"
        },
        {
          "internalType": "uint256",
          "name": "bestAmountOut",
          "type": "uint256"
        },
        {
          "internalType": "string",
          "name": "bestDEXName",
          "type": "string"
        }
      ],
      "stateMutability": "view",
      "type": "function"
    },
    {
      "inputs": [],
      "name": "getStats",
      "outputs": [
        {
          "internalType": "uint256",
          "name": "totalAggregated",
          "type": "uint256"
        },
        {
          "internalType": "uint256",
          "name": "totalSwaps",
          "type": "uint256"
        },
        {
          "internalType": "uint256",
          "name": "activeDEXCount",
          "type": "uint256"
        }
      ],
      "stateMutability": "view",
      "type": "function"
    },
    {
      "inputs": [],
      "name": "owner",
      "outputs": [
        {
          "internalType": "address",
          "name": "",
          "type": "address"
        }
      ],
      "stateMutability": "view",
      "type": "function"
    },
    {
      "inputs": [],
      "name": "ratStakingPool",
      "outputs": [
        {
          "internalType": "address",
          "name": "",
          "type": "address"
        }
      ],
      "stateMutability": "view",
      "type": "function"
    },
    {
      "inputs": [],
      "name": "renounceOwnership",
      "outputs": [],
      "stateMutability": "nonpayable",
      "type": "function"
    },
    {
      "inputs": [
        {
          "internalType": "address",
          "name": "_ratStakingPool",
          "type": "address"
        }
      ],
      "name": "setRATStakingPool",
      "outputs": [],
      "stateMutability": "nonpayable",
      "type": "function"
    },
    {
      "inputs": [
        {
          "internalType": "uint256",
          "name": "_slippageTolerance",
          "type": "uint256"
        }
      ],
      "name": "setSlippageTolerance",
      "outputs": [],
      "stateMutability": "nonpayable",
      "type": "function"
    },
    {
      "inputs": [],
      "name": "slippageTolerance",
      "outputs": [
        {
          "internalType": "uint256",
          "name": "",
          "type": "uint256"
        }
      ],
      "stateMutability": "view",
      "type": "function"
    },
    {
      "inputs": [],
      "name": "totalSwapsExecuted",
      "outputs": [
        {
          "internalType": "uint256",
          "name": "",
          "type": "uint256"
        }
      ],
      "stateMutability": "view",
      "type": "function"
    },
    {
      "inputs": [],
      "name": "totalUSDTAggregated",
      "outputs": [
        {
          "internalType": "uint256",
          "name": "",
          "type": "uint256"
        }
      ],
      "stateMutability": "view",
      "type": "function"
    },
    {
      "inputs": [
        {
          "internalType": "address",
          "name": "newOwner",
          "type": "address"
        }
      ],
      "name": "transferOwnership",
      "outputs": [],
      "stateMutability": "nonpayable",
      "type": "function"
    }
  ],
  "bytecode": "0x60a060405261012c6007553480156200001757600080fd5b5060405162001edd38038062001edd8339810160408190526200003a9162000153565b806001600160a01b0381166200006b57604051631e4fbdf760e01b8152600060048201526024015b60405180910390fd5b6200007681620000e6565b50600180556001600160a01b038216620000d35760405162461bcd60e51b815260206004820152601460248201527f496e76616c696420555344542061646472657373000000000000000000000000604482015260640162000062565b506001600160a01b03166080526200018b565b600080546001600160a01b038381166001600160a01b0319831681178455604051919092169283917f8be0079c531659141344cd1fd0a4f28419497f9722a3daafe3b4186f6b6457e09190a35050565b80516001600160a01b03811681146200014e57600080fd5b919050565b600080604083850312156200016757600080fd5b620001728362000136565b9150620001826020840162000136565b90509250929050565b608051611cfe620001df6000396000818161020e0152818161058d015281816106ed015281816107a50152818161088d0152818161092d015281816109b501528181610b2401526112430152611cfe6000f3fe608060405234801561001057600080fd5b50600436106101215760003560e01c8063ba7c78e8116100ad578063daead7b011610071578063daead7b014610270578063e7c2269e14610283578063e95d7263146102a6578063f07e3586146102af578063f2fde38b146102d157600080fd5b8063ba7c78e8146101f6578063c54e44eb14610209578063c59d484714610230578063d03153aa14610254578063d2d68e171461025d57600080fd5b80638da5cb5b116100f45780638da5cb5b1461018657806395ccea6714610197578063a729c533146101aa578063b5e69fe8146101ca578063b913257c146101df57600080fd5b8063117da1ee14610126578063245e186d1461013b5780634fc657511461014e578063715018a61461017e575b600080fd5b610139610134366004611611565b6102e4565b005b610139610149366004611646565b610389565b61016161015c366004611611565b610441565b6040516001600160a01b0390911681526020015b60405180910390f35b61013961046b565b6000546001600160a01b0316610161565b6101396101a5366004611661565b61047f565b6101bd6101b836600461168b565b6104b1565b6040516101759190611704565b6101d2610a67565b6040516101759190611796565b6101e860065481565b604051908152602001610175565b6101e86102043660046117a9565b610ac9565b6101617f000000000000000000000000000000000000000000000000000000000000000081565b60055460065460035460408051938452602084019290925290820152606001610175565b6101e860075481565b600454610161906001600160a01b031681565b61013961027e36600461182c565b610c02565b610296610291366004611646565b610d9e565b60405161017594939291906118f3565b6101e860055481565b6102c26102bd366004611661565b610e60565b6040516101759392919061192c565b6101396102df366004611646565b610e7c565b6102ec610eba565b6103e88111156103435760405162461bcd60e51b815260206004820152601b60248201527f536c69707061676520746f6c6572616e636520746f6f2068696768000000000060448201526064015b60405180910390fd5b600780549082905560408051828152602081018490527fddd31550b26e9ef8ade466958be83ff8a014d9b4f36d546b61a6847a4530657591015b60405180910390a15050565b610391610eba565b6001600160a01b0381166103e75760405162461bcd60e51b815260206004820152601c60248201527f496e76616c6964207374616b696e6720706f6f6c206164647265737300000000604482015260640161033a565b600480546001600160a01b038381166001600160a01b031983168117909355604080519190921680825260208201939093527fdeafb3cc563347555625b5863ac500302d91de2e5c80e5c57ef842af645a2478910161037d565b6003818154811061045157600080fd5b6000918252602090912001546001600160a01b0316905081565b610473610eba565b61047d6000610ee7565b565b610487610eba565b6104ad61049c6000546001600160a01b031690565b6001600160a01b0384169083610f37565b5050565b6104e560405180608001604052806000815260200160006001600160a01b0316815260200160608152602001600081525090565b6104ed610f9b565b6001600160a01b03841661053b5760405162461bcd60e51b8152602060048201526015602482015274496e76616c696420746f6b656e206164647265737360581b604482015260640161033a565b6000831161058b5760405162461bcd60e51b815260206004820152601d60248201527f416d6f756e74206d7573742062652067726561746572207468616e2030000000604482015260640161033a565b7f00000000000000000000000000000000000000000000000000000000000000006001600160a01b0316846001600160a01b03160361060c5760405162461bcd60e51b815260206004820152601860248201527f43616e6e6f742073776170205553445420746f20555344540000000000000000604482015260640161033a565b6106216001600160a01b038516333086610fc5565b60008060006106308787611004565b919450925090506001600160a01b0383166106855760405162461bcd60e51b8152602060048201526015602482015274139bc81cdd5a5d18589b194811115608199bdd5b99605a1b604482015260640161033a565b848210156106d55760405162461bcd60e51b815260206004820152601a60248201527f496e73756666696369656e74206f757470757420616d6f756e74000000000000604482015260640161033a565b6040516370a0823160e01b81523060048201526000907f00000000000000000000000000000000000000000000000000000000000000006001600160a01b0316906370a0823190602401602060405180830381865afa15801561073c573d6000803e3d6000fd5b505050506040513d601f19601f82011682018060405250810190610760919061195c565b905060005a9050610773898986886111d8565b60005a610780908361198b565b6040516370a0823160e01b815230600482015290915060009084906001600160a01b037f000000000000000000000000000000000000000000000000000000000000000016906370a0823190602401602060405180830381865afa1580156107ec573d6000803e3d6000fd5b505050506040513d601f19601f82011682018060405250810190610810919061195c565b61081a919061198b565b9050806005600082825461082e919061199e565b909155505060068054906000610843836119b1565b90915550506004546001600160a01b0316158015906108625750600081115b15610915576000610874600a836119ca565b90508015610913576004546108b6906001600160a01b037f0000000000000000000000000000000000000000000000000000000000000000811691168361134f565b600480546040516364595aa360e11b81529182018390526001600160a01b03169063c8b2b54690602401600060405180830381600087803b1580156108fa57600080fd5b505af115801561090e573d6000803e3d6000fd5b505050505b505b6040516370a0823160e01b81523060048201526000907f00000000000000000000000000000000000000000000000000000000000000006001600160a01b0316906370a0823190602401602060405180830381865afa15801561097c573d6000803e3d6000fd5b505050506040513d601f19601f820116820180604052508101906109a0919061195c565b905080156109dc576109dc6001600160a01b037f0000000000000000000000000000000000000000000000000000000000000000163383610f37565b6040518060800160405280838152602001896001600160a01b031681526020018781526020018481525098508b6001600160a01b03167f8e2fbccfa416217602582f354e31f6c93e901105d4ec0e3cc396ac4cb38b65a48c848b8a604051610a4794939291906119ec565b60405180910390a25050505050505050610a6060018055565b9392505050565b60606003805480602002602001604051908101604052809291908181526020018280548015610abf57602002820191906000526020600020905b81546001600160a01b03168152600190910190602001808311610aa1575b5050505050905090565b604080516002808252606082018352600092839291906020830190803683370190505090508381600081518110610b0257610b02611a19565b60200260200101906001600160a01b031690816001600160a01b0316815250507f000000000000000000000000000000000000000000000000000000000000000081600181518110610b5657610b56611a19565b6001600160a01b03928316602091820292909201015260405163d06ca61f60e01b815260009187169063d06ca61f90610b959087908690600401611a2f565b600060405180830381865afa158015610bb2573d6000803e3d6000fd5b505050506040513d6000823e601f3d908101601f19168201604052610bda9190810190611a50565b905080600181518110610bef57610bef611a19565b6020026020010151925050509392505050565b610c0a610eba565b6001600160a01b038416610c595760405162461bcd60e51b8152602060048201526016602482015275496e76616c696420726f75746572206164647265737360501b604482015260640161033a565b604080516080810182526001600160a01b038087168083528615156020808501918252848601888152606086018881526000948552600292839052969093208551815493511515600160a01b026001600160a81b03199094169516949094179190911783559051600183015592519192909190820190610cd99082611b7e565b50905050828015610cf05750610cee846113df565b155b15610d4557600380546001810182556000919091527fc2575a0e9e593c00f959f8c92f12db2869c3395a3b0502d05e2516446f71f85b0180546001600160a01b0319166001600160a01b038616179055610d53565b82610d5357610d5384611448565b836001600160a01b03167f18da4e4d2e8950023b9b84b635bc6b47c63b9ced3ce06d26d642b5c13658a2f9848484604051610d9093929190611c3e565b60405180910390a250505050565b60026020819052600091825260409091208054600182015492820180546001600160a01b03831694600160a01b90930460ff16939190610ddd90611af6565b80601f0160208091040260200160405190810160405280929190818152602001828054610e0990611af6565b8015610e565780601f10610e2b57610100808354040283529160200191610e56565b820191906000526020600020905b815481529060010190602001808311610e3957829003601f168201915b5050505050905084565b6000806060610e6f8585611004565b9250925092509250925092565b610e84610eba565b6001600160a01b038116610eae57604051631e4fbdf760e01b81526000600482015260240161033a565b610eb781610ee7565b50565b6000546001600160a01b0316331461047d5760405163118cdaa760e01b815233600482015260240161033a565b600080546001600160a01b038381166001600160a01b0319831681178455604051919092169283917f8be0079c531659141344cd1fd0a4f28419497f9722a3daafe3b4186f6b6457e09190a35050565b6040516001600160a01b03838116602483015260448201839052610f9691859182169063a9059cbb906064015b604051602081830303815290604052915060e01b6020820180516001600160e01b03838183161783525050505061154f565b505050565b600260015403610fbe57604051633ee5aeb560e01b815260040160405180910390fd5b6002600155565b6040516001600160a01b038481166024830152838116604483015260648201839052610ffe9186918216906323b872dd90608401610f64565b50505050565b600080606060005b6003548110156111d05760006003828154811061102b5761102b611a19565b6000918252602080832091909101546001600160a01b0390811680845260028084526040808620815160808101835281549586168152600160a01b90950460ff1615159585019590955260018501549084015283018054919550919291606084019161109690611af6565b80601f01602080910402602001604051908101604052809291908181526020018280546110c290611af6565b801561110f5780601f106110e45761010080835404028352916020019161110f565b820191906000526020600020905b8154815290600101906020018083116110f257829003601f168201915b5050505050815250509050806020015161112a5750506111be565b60405163174f8f1d60e31b81526001600160a01b0380841660048301528916602482015260448101889052309063ba7c78e890606401602060405180830381865afa925050508015611199575060408051601f3d908101601f191682019092526111969181019061195c565b60015b6111a45750506111be565b858111156111ba57829650809550816060015194505b5050505b806111c8816119b1565b91505061100c565b509250925092565b6111ec6001600160a01b038516828561134f565b604080516002808252606082018352600092602083019080368337019050509050848160008151811061122157611221611a19565b60200260200101906001600160a01b031690816001600160a01b0316815250507f00000000000000000000000000000000000000000000000000000000000000008160018151811061127557611275611a19565b60200260200101906001600160a01b031690816001600160a01b03168152505060006127106007546127106112aa919061198b565b6112b49086611c5f565b6112be91906119ca565b90506001600160a01b0383166338ed1739868385306112df4261012c61199e565b6040518663ffffffff1660e01b81526004016112ff959493929190611c76565b6000604051808303816000875af115801561131e573d6000803e3d6000fd5b505050506040513d6000823e601f3d908101601f191682016040526113469190810190611a50565b50505050505050565b604080516001600160a01b038416602482015260448082018490528251808303909101815260649091019091526020810180516001600160e01b031663095ea7b360e01b1790526113a084826115c0565b610ffe576040516001600160a01b038481166024830152600060448301526113d591869182169063095ea7b390606401610f64565b610ffe848261154f565b6000805b60035481101561143f57826001600160a01b03166003828154811061140a5761140a611a19565b6000918252602090912001546001600160a01b03160361142d5750600192915050565b80611437816119b1565b9150506113e3565b50600092915050565b60005b6003548110156104ad57816001600160a01b03166003828154811061147257611472611a19565b6000918252602090912001546001600160a01b03160361153d576003805461149c9060019061198b565b815481106114ac576114ac611a19565b600091825260209091200154600380546001600160a01b0390921691839081106114d8576114d8611a19565b9060005260206000200160006101000a8154816001600160a01b0302191690836001600160a01b03160217905550600380548061151757611517611cb2565b600082815260209020810160001990810180546001600160a01b03191690550190555050565b80611547816119b1565b91505061144b565b600080602060008451602086016000885af180611572576040513d6000823e3d81fd5b50506000513d9150811561158a578060011415611597565b6001600160a01b0384163b155b15610ffe57604051635274afe760e01b81526001600160a01b038516600482015260240161033a565b6000806000806020600086516020880160008a5af192503d91506000519050828015611605575081156115f65780600114611605565b6000866001600160a01b03163b115b93505050505b92915050565b60006020828403121561162357600080fd5b5035919050565b80356001600160a01b038116811461164157600080fd5b919050565b60006020828403121561165857600080fd5b610a608261162a565b6000806040838503121561167457600080fd5b61167d8361162a565b946020939093013593505050565b6000806000606084860312156116a057600080fd5b6116a98461162a565b95602085013595506040909401359392505050565b6000815180845260005b818110156116e4576020818501810151868301820152016116c8565b506000602082860101526020601f19601f83011685010191505092915050565b602081528151602082015260018060a01b036020830151166040820152600060408301516080606084015261173c60a08401826116be565b9050606084015160808401528091505092915050565b600081518084526020808501945080840160005b8381101561178b5781516001600160a01b031687529582019590820190600101611766565b509495945050505050565b602081526000610a606020830184611752565b6000806000606084860312156117be57600080fd5b6117c78461162a565b92506117d56020850161162a565b9150604084013590509250925092565b634e487b7160e01b600052604160045260246000fd5b604051601f8201601f1916810167ffffffffffffffff81118282101715611824576118246117e5565b604052919050565b6000806000806080858703121561184257600080fd5b61184b8561162a565b9350602080860135801515811461186157600080fd5b935060408601359250606086013567ffffffffffffffff8082111561188557600080fd5b818801915088601f83011261189957600080fd5b8135818111156118ab576118ab6117e5565b6118bd601f8201601f191685016117fb565b915080825289848285010111156118d357600080fd5b808484018584013760008482840101525080935050505092959194509250565b60018060a01b0385168152831515602082015282604082015260806060820152600061192260808301846116be565b9695505050505050565b60018060a01b038416815282602082015260606040820152600061195360608301846116be565b95945050505050565b60006020828403121561196e57600080fd5b5051919050565b634e487b7160e01b600052601160045260246000fd5b8181038181111561160b5761160b611975565b8082018082111561160b5761160b611975565b6000600182016119c3576119c3611975565b5060010190565b6000826119e757634e487b7160e01b600052601260045260246000fd5b500490565b84815283602082015260018060a01b038316604082015260806060820152600061192260808301846116be565b634e487b7160e01b600052603260045260246000fd5b828152604060208201526000611a486040830184611752565b949350505050565b60006020808385031215611a6357600080fd5b825167ffffffffffffffff80821115611a7b57600080fd5b818501915085601f830112611a8f57600080fd5b815181811115611aa157611aa16117e5565b8060051b9150611ab28483016117fb565b8181529183018401918481019088841115611acc57600080fd5b938501935b83851015611aea57845182529385019390850190611ad1565b98975050505050505050565b600181811c90821680611b0a57607f821691505b602082108103611b2a57634e487b7160e01b600052602260045260246000fd5b50919050565b601f821115610f9657600081815260208120601f850160051c81016020861015611b575750805b601f850160051c820191505b81811015611b7657828155600101611b63565b505050505050565b815167ffffffffffffffff811115611b9857611b986117e5565b611bac81611ba68454611af6565b84611b30565b602080601f831160018114611be15760008415611bc95750858301515b600019600386901b1c1916600185901b178555611b76565b600085815260208120601f198616915b82811015611c1057888601518255948401946001909101908401611bf1565b5085821015611c2e5787850151600019600388901b60f8161c191681555b5050505050600190811b01905550565b831515815282602082015260606040820152600061195360608301846116be565b808202811582820484141761160b5761160b611975565b85815284602082015260a060408201526000611c9560a0830186611752565b6001600160a01b0394909416606083015250608001529392505050565b634e487b7160e01b600052603160045260246000fdfea2646970667358221220f8d161eb261e1e44430b3210a3751795da71d05dc346542cc0ed3f176928eb5b64736f6c63430008140033",
  "linkReferences": {},
  "deployedLinkReferences": {}
}