{
  "_format": "hh-sol-artifact-1",
  "contractName": "PledgeManager",
  "sourceName": "contracts/PledgeManager.sol",
  "abi": [
    {
      "inputs": [
        {
          "internalType": "address",
          "name": "initialOwner",
          "type": "address"
        }
      ],
      "stateMutability": "nonpayable",
      "type": "constructor"
    },
    {
      "inputs": [],
      "name": "EnforcedPause",
      "type": "error"
    },
    {
      "inputs": [],
      "name": "ExpectedPause",
      "type": "error"
    },
    {
      "inputs": [
        {
          "internalType": "address",
          "name": "owner",
          "type": "address"
        }
      ],
      "name": "OwnableInvalidOwner",
      "type": "error"
    },
    {
      "inputs": [
        {
          "internalType": "address",
          "name": "account",
          "type": "address"
        }
      ],
      "name": "OwnableUnauthorizedAccount",
      "type": "error"
    },
    {
      "inputs": [],
      "name": "ReentrancyGuardReentrantCall",
      "type": "error"
    },
    {
      "anonymous": false,
      "inputs": [
        {
          "indexed": true,
          "internalType": "uint256",
          "name": "pledgeId",
          "type": "uint256"
        },
        {
          "indexed": true,
          "internalType": "address",
          "name": "pledger",
          "type": "address"
        },
        {
          "indexed": false,
          "internalType": "string",
          "name": "assetType",
          "type": "string"
        },
        {
          "indexed": false,
          "internalType": "uint256",
          "name": "assetValue",
          "type": "uint256"
        },
        {
          "indexed": false,
          "internalType": "string",
          "name": "ipfsHash",
          "type": "string"
        }
      ],
      "name": "AssetPledged",
      "type": "event"
    },
    {
      "anonymous": false,
      "inputs": [
        {
          "indexed": true,
          "internalType": "address",
          "name": "previousOwner",
          "type": "address"
        },
        {
          "indexed": true,
          "internalType": "address",
          "name": "newOwner",
          "type": "address"
        }
      ],
      "name": "OwnershipTransferred",
      "type": "event"
    },
    {
      "anonymous": false,
      "inputs": [
        {
          "indexed": false,
          "internalType": "address",
          "name": "account",
          "type": "address"
        }
      ],
      "name": "Paused",
      "type": "event"
    },
    {
      "anonymous": false,
      "inputs": [
        {
          "indexed": true,
          "internalType": "uint256",
          "name": "pledgeId",
          "type": "uint256"
        },
        {
          "indexed": false,
          "internalType": "uint256",
          "name": "recoveredValue",
          "type": "uint256"
        }
      ],
      "name": "PledgeLiquidated",
      "type": "event"
    },
    {
      "anonymous": false,
      "inputs": [
        {
          "indexed": true,
          "internalType": "uint256",
          "name": "pledgeId",
          "type": "uint256"
        },
        {
          "indexed": false,
          "internalType": "string",
          "name": "reason",
          "type": "string"
        }
      ],
      "name": "PledgeRejected",
      "type": "event"
    },
    {
      "anonymous": false,
      "inputs": [
        {
          "indexed": true,
          "internalType": "uint256",
          "name": "pledgeId",
          "type": "uint256"
        },
        {
          "indexed": false,
          "internalType": "uint256",
          "name": "ratTokensMinted",
          "type": "uint256"
        },
        {
          "indexed": false,
          "internalType": "string",
          "name": "verificationNotes",
          "type": "string"
        }
      ],
      "name": "PledgeVerified",
      "type": "event"
    },
    {
      "anonymous": false,
      "inputs": [
        {
          "indexed": false,
          "internalType": "address",
          "name": "account",
          "type": "address"
        }
      ],
      "name": "Unpaused",
      "type": "event"
    },
    {
      "inputs": [
        {
          "internalType": "uint256",
          "name": "pledgeId",
          "type": "uint256"
        }
      ],
      "name": "getPledge",
      "outputs": [
        {
          "components": [
            {
              "internalType": "address",
              "name": "pledger",
              "type": "address"
            },
            {
              "internalType": "string",
              "name": "assetType",
              "type": "string"
            },
            {
              "internalType": "uint256",
              "name": "assetValue",
              "type": "uint256"
            },
            {
              "internalType": "string",
              "name": "ipfsHash",
              "type": "string"
            },
            {
              "internalType": "uint256",
              "name": "timestamp",
              "type": "uint256"
            },
            {
              "internalType": "enum PledgeManager.PledgeStatus",
              "name": "status",
              "type": "uint8"
            },
            {
              "internalType": "uint256",
              "name": "ratTokensMinted",
              "type": "uint256"
            },
            {
              "internalType": "string",
              "name": "verificationNotes",
              "type": "string"
            }
          ],
          "internalType": "struct PledgeManager.AssetPledge",
          "name": "",
          "type": "tuple"
        }
      ],
      "stateMutability": "view",
      "type": "function"
    },
    {
      "inputs": [],
      "name": "getTotalPledges",
      "outputs": [
        {
          "internalType": "uint256",
          "name": "",
          "type": "uint256"
        }
      ],
      "stateMutability": "view",
      "type": "function"
    },
    {
      "inputs": [
        {
          "internalType": "address",
          "name": "user",
          "type": "address"
        }
      ],
      "name": "getUserPledges",
      "outputs": [
        {
          "internalType": "uint256[]",
          "name": "",
          "type": "uint256[]"
        }
      ],
      "stateMutability": "view",
      "type": "function"
    },
    {
      "inputs": [
        {
          "internalType": "uint256",
          "name": "pledgeId",
          "type": "uint256"
        },
        {
          "internalType": "uint256",
          "name": "recoveredValue",
          "type": "uint256"
        }
      ],
      "name": "liquidatePledge",
      "outputs": [],
      "stateMutability": "nonpayable",
      "type": "function"
    },
    {
      "inputs": [],
      "name": "nextPledgeId",
      "outputs": [
        {
          "internalType": "uint256",
          "name": "",
          "type": "uint256"
        }
      ],
      "stateMutability": "view",
      "type": "function"
    },
    {
      "inputs": [],
      "name": "owner",
      "outputs": [
        {
          "internalType": "address",
          "name": "",
          "type": "address"
        }
      ],
      "stateMutability": "view",
      "type": "function"
    },
    {
      "inputs": [],
      "name": "pause",
      "outputs": [],
      "stateMutability": "nonpayable",
      "type": "function"
    },
    {
      "inputs": [],
      "name": "paused",
      "outputs": [
        {
          "internalType": "bool",
          "name": "",
          "type": "bool"
        }
      ],
      "stateMutability": "view",
      "type": "function"
    },
    {
      "inputs": [
        {
          "internalType": "uint256",
          "name": "",
          "type": "uint256"
        }
      ],
      "name": "pledges",
      "outputs": [
        {
          "internalType": "address",
          "name": "pledger",
          "type": "address"
        },
        {
          "internalType": "string",
          "name": "assetType",
          "type": "string"
        },
        {
          "internalType": "uint256",
          "name": "assetValue",
          "type": "uint256"
        },
        {
          "internalType": "string",
          "name": "ipfsHash",
          "type": "string"
        },
        {
          "internalType": "uint256",
          "name": "timestamp",
          "type": "uint256"
        },
        {
          "internalType": "enum PledgeManager.PledgeStatus",
          "name": "status",
          "type": "uint8"
        },
        {
          "internalType": "uint256",
          "name": "ratTokensMinted",
          "type": "uint256"
        },
        {
          "internalType": "string",
          "name": "verificationNotes",
          "type": "string"
        }
      ],
      "stateMutability": "view",
      "type": "function"
    },
    {
      "inputs": [],
      "name": "priceOracle",
      "outputs": [
        {
          "internalType": "contract IPriceOracle",
          "name": "",
          "type": "address"
        }
      ],
      "stateMutability": "view",
      "type": "function"
    },
    {
      "inputs": [],
      "name": "ratTokenAddress",
      "outputs": [
        {
          "internalType": "address",
          "name": "",
          "type": "address"
        }
      ],
      "stateMutability": "view",
      "type": "function"
    },
    {
      "inputs": [
        {
          "internalType": "uint256",
          "name": "pledgeId",
          "type": "uint256"
        },
        {
          "internalType": "string",
          "name": "reason",
          "type": "string"
        }
      ],
      "name": "rejectPledge",
      "outputs": [],
      "stateMutability": "nonpayable",
      "type": "function"
    },
    {
      "inputs": [],
      "name": "renounceOwnership",
      "outputs": [],
      "stateMutability": "nonpayable",
      "type": "function"
    },
    {
      "inputs": [
        {
          "internalType": "address",
          "name": "_priceOracle",
          "type": "address"
        }
      ],
      "name": "setPriceOracle",
      "outputs": [],
      "stateMutability": "nonpayable",
      "type": "function"
    },
    {
      "inputs": [
        {
          "internalType": "address",
          "name": "_ratTokenAddress",
          "type": "address"
        }
      ],
      "name": "setRATTokenAddress",
      "outputs": [],
      "stateMutability": "nonpayable",
      "type": "function"
    },
    {
      "inputs": [
        {
          "internalType": "string",
          "name": "assetType",
          "type": "string"
        },
        {
          "internalType": "uint256",
          "name": "assetValue",
          "type": "uint256"
        },
        {
          "internalType": "string",
          "name": "ipfsHash",
          "type": "string"
        }
      ],
      "name": "submitPledge",
      "outputs": [],
      "stateMutability": "nonpayable",
      "type": "function"
    },
    {
      "inputs": [],
      "name": "totalActiveValue",
      "outputs": [
        {
          "internalType": "uint256",
          "name": "",
          "type": "uint256"
        }
      ],
      "stateMutability": "view",
      "type": "function"
    },
    {
      "inputs": [
        {
          "internalType": "address",
          "name": "newOwner",
          "type": "address"
        }
      ],
      "name": "transferOwnership",
      "outputs": [],
      "stateMutability": "nonpayable",
      "type": "function"
    },
    {
      "inputs": [],
      "name": "unpause",
      "outputs": [],
      "stateMutability": "nonpayable",
      "type": "function"
    },
    {
      "inputs": [
        {
          "internalType": "address",
          "name": "",
          "type": "address"
        },
        {
          "internalType": "uint256",
          "name": "",
          "type": "uint256"
        }
      ],
      "name": "userPledges",
      "outputs": [
        {
          "internalType": "uint256",
          "name": "",
          "type": "uint256"
        }
      ],
      "stateMutability": "view",
      "type": "function"
    },
    {
      "inputs": [
        {
          "internalType": "uint256",
          "name": "pledgeId",
          "type": "uint256"
        },
        {
          "internalType": "uint256",
          "name": "ratTokensToMint",
          "type": "uint256"
        },
        {
          "internalType": "string",
          "name": "verificationNotes",
          "type": "string"
        }
      ],
      "name": "verifyPledge",
      "outputs": [],
      "stateMutability": "nonpayable",
      "type": "function"
    }
  ],
  "bytecode": "0x608060405260016005553480156200001657600080fd5b5060405162001c4938038062001c498339810160408190526200003991620000d0565b806001600160a01b0381166200006957604051631e4fbdf760e01b81526000600482015260240160405180910390fd5b620000748162000080565b50506001805562000102565b600080546001600160a01b038381166001600160a01b0319831681178455604051919092169283917f8be0079c531659141344cd1fd0a4f28419497f9722a3daafe3b4186f6b6457e09190a35050565b600060208284031215620000e357600080fd5b81516001600160a01b0381168114620000fb57600080fd5b9392505050565b611b3780620001126000396000f3fe608060405234801561001057600080fd5b50600436106101375760003560e01c8063715018a6116100b8578063ac1240811161007c578063ac12408114610261578063b672554914610288578063e0d99f691461029b578063eaa57944146102ae578063f2fde38b146102c1578063f4d80e5f146102d457600080fd5b8063715018a61461020d5780638456cb59146102155780638da5cb5b1461021d57806390c4ce521461022e57806394391d801461024e57600080fd5b8063361fd0f3116100ff578063361fd0f3146101be5780633f4ba83a146101d3578063530e784f146101db5780635c975abb146101ee578063658192bf1461020457600080fd5b80630a228d511461013c578063109d54811461015857806318ea71cf146101605780632630c12f14610180578063268ec72e146101ab575b600080fd5b61014560065481565b6040519081526020015b60405180910390f35b6101456102e7565b61017361016e3660046113d9565b6102fd565b60405161014f91906113fb565b600754610193906001600160a01b031681565b6040516001600160a01b03909116815260200161014f565b600854610193906001600160a01b031681565b6101d16101cc3660046113d9565b610369565b005b6101d16103e6565b6101d16101e93660046113d9565b6103f8565b60025460ff16604051901515815260200161014f565b61014560055481565b6101d1610471565b6101d1610483565b6000546001600160a01b0316610193565b61024161023c36600461143f565b610493565b60405161014f91906114e0565b6101d161025c366004611632565b61070a565b61027461026f36600461143f565b610816565b60405161014f989796959493929190611679565b6101d16102963660046116f4565b610a02565b6101456102a9366004611744565b610cc7565b6101d16102bc36600461176e565b610cf8565b6101d16102cf3660046113d9565b610f83565b6101d16102e23660046117d1565b610fc1565b600060016005546102f89190611809565b905090565b6001600160a01b03811660009081526004602090815260409182902080548351818402810184019094528084526060939283018282801561035d57602002820191906000526020600020905b815481526020019060010190808311610349575b50505050509050919050565b6103716110d8565b6001600160a01b0381166103c45760405162461bcd60e51b8152602060048201526015602482015274496e76616c696420746f6b656e206164647265737360581b60448201526064015b60405180910390fd5b600880546001600160a01b0319166001600160a01b0392909216919091179055565b6103ee6110d8565b6103f6611105565b565b6104006110d8565b6001600160a01b03811661044f5760405162461bcd60e51b8152602060048201526016602482015275496e76616c6964206f7261636c65206164647265737360501b60448201526064016103bb565b600780546001600160a01b0319166001600160a01b0392909216919091179055565b6104796110d8565b6103f66000611157565b61048b6110d8565b6103f66111a7565b61049b61135e565b6000828152600360205260409020546001600160a01b03166104cf5760405162461bcd60e51b81526004016103bb90611822565b6000828152600360209081526040918290208251610100810190935280546001600160a01b03168352600181018054919284019161050c90611851565b80601f016020809104026020016040519081016040528092919081815260200182805461053890611851565b80156105855780601f1061055a57610100808354040283529160200191610585565b820191906000526020600020905b81548152906001019060200180831161056857829003601f168201915b50505050508152602001600282015481526020016003820180546105a890611851565b80601f01602080910402602001604051908101604052809291908181526020018280546105d490611851565b80156106215780601f106105f657610100808354040283529160200191610621565b820191906000526020600020905b81548152906001019060200180831161060457829003601f168201915b505050918352505060048201546020820152600582015460409091019060ff166003811115610652576106526114a8565b6003811115610663576106636114a8565b81526020016006820154815260200160078201805461068190611851565b80601f01602080910402602001604051908101604052809291908181526020018280546106ad90611851565b80156106fa5780601f106106cf576101008083540402835291602001916106fa565b820191906000526020600020905b8154815290600101906020018083116106dd57829003601f168201915b5050505050815250509050919050565b6107126110d8565b6000828152600360205260409020546001600160a01b03166107465760405162461bcd60e51b81526004016103bb90611822565b600082815260036020819052604082206005015460ff169081111561076d5761076d6114a8565b146107af5760405162461bcd60e51b8152602060048201526012602482015271506c65646765206e6f742070656e64696e6760701b60448201526064016103bb565b600082815260036020526040902060058101805460ff191660021790556007016107d982826118d9565b50817ff657058ab694f7d2ce867f1b895fcb01bcdb91102d733870243c1ac1a52544dd8260405161080a9190611999565b60405180910390a25050565b600360205260009081526040902080546001820180546001600160a01b03909216929161084290611851565b80601f016020809104026020016040519081016040528092919081815260200182805461086e90611851565b80156108bb5780601f10610890576101008083540402835291602001916108bb565b820191906000526020600020905b81548152906001019060200180831161089e57829003601f168201915b5050505050908060020154908060030180546108d690611851565b80601f016020809104026020016040519081016040528092919081815260200182805461090290611851565b801561094f5780601f106109245761010080835404028352916020019161094f565b820191906000526020600020905b81548152906001019060200180831161093257829003601f168201915b5050506004840154600585015460068601546007870180549697939660ff90931695509093509061097f90611851565b80601f01602080910402602001604051908101604052809291908181526020018280546109ab90611851565b80156109f85780601f106109cd576101008083540402835291602001916109f8565b820191906000526020600020905b8154815290600101906020018083116109db57829003601f168201915b5050505050905088565b610a0a6110d8565b6000838152600360205260409020546001600160a01b0316610a3e5760405162461bcd60e51b81526004016103bb90611822565b600083815260036020819052604082206005015460ff1690811115610a6557610a656114a8565b14610aa75760405162461bcd60e51b8152602060048201526012602482015271506c65646765206e6f742070656e64696e6760701b60448201526064016103bb565b60008211610af75760405162461bcd60e51b815260206004820152601a60248201527f4d757374206d696e74206174206c65617374203120746f6b656e00000000000060448201526064016103bb565b600083815260036020526040902060058101805460ff1916600117905560068101839055600701610b2882826118d9565b506000838152600360205260408120600201546006805491929091610b4e9084906119ac565b90915550506008546001600160a01b031615610c885760085460008481526003602052604081205490916001600160a01b03908116911684610b8f876111e4565b604051602001610b9f91906119bf565b60408051601f1981840301815290829052610bbe939291602401611a04565b60408051601f198184030181529181526020820180516001600160e01b03166334ff261960e21b17905251610bf39190611a34565b6000604051808303816000865af19150503d8060008114610c30576040519150601f19603f3d011682016040523d82523d6000602084013e610c35565b606091505b5050905080610c865760405162461bcd60e51b815260206004820152601960248201527f4661696c656420746f206d696e742052415420746f6b656e730000000000000060448201526064016103bb565b505b827fc180953fa591451acacc8ee801709a6aa17b9475b9830e65f84ee391367ab92a8383604051610cba929190611a50565b60405180910390a2505050565b60046020528160005260406000208181548110610ce357600080fd5b90600052602060002001600091509150505481565b610d006112ed565b610d08611311565b6000835111610d595760405162461bcd60e51b815260206004820152601a60248201527f417373657420747970652063616e6e6f7420626520656d70747900000000000060448201526064016103bb565b60008211610db45760405162461bcd60e51b815260206004820152602260248201527f41737365742076616c7565206d7573742062652067726561746572207468616e604482015261020360f41b60648201526084016103bb565b6000815111610e055760405162461bcd60e51b815260206004820152601960248201527f4950465320686173682063616e6e6f7420626520656d7074790000000000000060448201526064016103bb565b6005805460009182610e1683611a69565b909155506040805161010081018252338152602080820188815282840188905260608301879052426080840152600060a0840181905260c084018190528451808401865281815260e08501528581526003909252929020815181546001600160a01b0319166001600160a01b039091161781559151929350916001820190610e9e90826118d9565b506040820151600282015560608201516003820190610ebd90826118d9565b506080820151600482015560a082015160058201805460ff19166001836003811115610eeb57610eeb6114a8565b021790555060c0820151600682015560e08201516007820190610f0e90826118d9565b5050336000818152600460209081526040808320805460018101825590845291909220018490555190915082907f0906a4413a9dedb4de1172ed40134f257a1fa9cbfc5c8aa2b70265052bc329a490610f6c90889088908890611a82565b60405180910390a350610f7e60018055565b505050565b610f8b6110d8565b6001600160a01b038116610fb557604051631e4fbdf760e01b8152600060048201526024016103bb565b610fbe81611157565b50565b610fc96110d8565b6000828152600360205260409020546001600160a01b0316610ffd5760405162461bcd60e51b81526004016103bb90611822565b600160008381526003602081905260409091206005015460ff1690811115611027576110276114a8565b1461106a5760405162461bcd60e51b8152602060048201526013602482015272141b195919d9481b9bdd081d995c9a599a5959606a1b60448201526064016103bb565b6000828152600360208190526040822060058101805460ff19169092179091556002015460068054919290916110a1908490611809565b909155505060405181815282907f07cdd90aeced724b86d009cec76862225aa8fef4364aff357de5f621e4bc5df19060200161080a565b6000546001600160a01b031633146103f65760405163118cdaa760e01b81523360048201526024016103bb565b61110d61133b565b6002805460ff191690557f5db9ee0a495bf2e6ff9c91a7834c1ba4fdd244a5e8aa4e537bd38aeae4b073aa335b6040516001600160a01b03909116815260200160405180910390a1565b600080546001600160a01b038381166001600160a01b0319831681178455604051919092169283917f8be0079c531659141344cd1fd0a4f28419497f9722a3daafe3b4186f6b6457e09190a35050565b6111af6112ed565b6002805460ff191660011790557f62e78cea01bee320cd4e420270b5ea74000d11b0c9f74754ebdbfc544b05a25861113a3390565b60608160000361120b5750506040805180820190915260018152600360fc1b602082015290565b8160005b8115611235578061121f81611a69565b915061122e9050600a83611ac3565b915061120f565b60008167ffffffffffffffff8111156112505761125061158f565b6040519080825280601f01601f19166020018201604052801561127a576020820181803683370190505b5090505b84156112e55761128f600183611809565b915061129c600a86611ad7565b6112a79060306119ac565b60f81b8183815181106112bc576112bc611aeb565b60200101906001600160f81b031916908160001a9053506112de600a86611ac3565b945061127e565b949350505050565b60025460ff16156103f65760405163d93c066560e01b815260040160405180910390fd5b60026001540361133457604051633ee5aeb560e01b815260040160405180910390fd5b6002600155565b60025460ff166103f657604051638dfc202b60e01b815260040160405180910390fd5b60405180610100016040528060006001600160a01b0316815260200160608152602001600081526020016060815260200160008152602001600060038111156113a9576113a96114a8565b815260200160008152602001606081525090565b80356001600160a01b03811681146113d457600080fd5b919050565b6000602082840312156113eb57600080fd5b6113f4826113bd565b9392505050565b6020808252825182820181905260009190848201906040850190845b8181101561143357835183529284019291840191600101611417565b50909695505050505050565b60006020828403121561145157600080fd5b5035919050565b60005b8381101561147357818101518382015260200161145b565b50506000910152565b60008151808452611494816020860160208601611458565b601f01601f19169290920160200192915050565b634e487b7160e01b600052602160045260246000fd5b600481106114dc57634e487b7160e01b600052602160045260246000fd5b9052565b602081526114fa6020820183516001600160a01b03169052565b6000602083015161010080604085015261151861012085018361147c565b9150604085015160608501526060850151601f1980868503016080870152611540848361147c565b9350608087015160a087015260a0870151915061156060c08701836114be565b60c087015160e087015260e0870151915080868503018387015250611585838261147c565b9695505050505050565b634e487b7160e01b600052604160045260246000fd5b600082601f8301126115b657600080fd5b813567ffffffffffffffff808211156115d1576115d161158f565b604051601f8301601f19908116603f011681019082821181831017156115f9576115f961158f565b8160405283815286602085880101111561161257600080fd5b836020870160208301376000602085830101528094505050505092915050565b6000806040838503121561164557600080fd5b82359150602083013567ffffffffffffffff81111561166357600080fd5b61166f858286016115a5565b9150509250929050565b6001600160a01b03891681526101006020820181905260009061169e8382018b61147c565b905088604084015282810360608401526116b8818961147c565b90508660808401526116cd60a08401876114be565b8460c084015282810360e08401526116e5818561147c565b9b9a5050505050505050505050565b60008060006060848603121561170957600080fd5b8335925060208401359150604084013567ffffffffffffffff81111561172e57600080fd5b61173a868287016115a5565b9150509250925092565b6000806040838503121561175757600080fd5b611760836113bd565b946020939093013593505050565b60008060006060848603121561178357600080fd5b833567ffffffffffffffff8082111561179b57600080fd5b6117a7878388016115a5565b94506020860135935060408601359150808211156117c457600080fd5b5061173a868287016115a5565b600080604083850312156117e457600080fd5b50508035926020909101359150565b634e487b7160e01b600052601160045260246000fd5b8181038181111561181c5761181c6117f3565b92915050565b602080825260159082015274141b195919d948191bd95cc81b9bdd08195e1a5cdd605a1b604082015260600190565b600181811c9082168061186557607f821691505b60208210810361188557634e487b7160e01b600052602260045260246000fd5b50919050565b601f821115610f7e57600081815260208120601f850160051c810160208610156118b25750805b601f850160051c820191505b818110156118d1578281556001016118be565b505050505050565b815167ffffffffffffffff8111156118f3576118f361158f565b611907816119018454611851565b8461188b565b602080601f83116001811461193c57600084156119245750858301515b600019600386901b1c1916600185901b1785556118d1565b600085815260208120601f198616915b8281101561196b5788860151825594840194600190910190840161194c565b50858210156119895787850151600019600388901b60f8161c191681555b5050505050600190811b01905550565b6020815260006113f4602083018461147c565b8082018082111561181c5761181c6117f3565b7f417373657420706c6564676520766572696669636174696f6e202300000000008152600082516119f781601b850160208701611458565b91909101601b0192915050565b60018060a01b0384168152826020820152606060408201526000611a2b606083018461147c565b95945050505050565b60008251611a46818460208701611458565b9190910192915050565b8281526040602082015260006112e5604083018461147c565b600060018201611a7b57611a7b6117f3565b5060010190565b606081526000611a95606083018661147c565b8460208401528281036040840152611585818561147c565b634e487b7160e01b600052601260045260246000fd5b600082611ad257611ad2611aad565b500490565b600082611ae657611ae6611aad565b500690565b634e487b7160e01b600052603260045260246000fdfea264697066735822122053f030aa70a35db9754245ce8c6ad02a9661e2e3e8ecdb633a7c3bfff6c1f5a264736f6c63430008140033",
  "linkReferences": {},
  "deployedLinkReferences": {}
}