{
  "_format": "hh-sol-artifact-1",
  "contractName": "RATToken",
  "sourceName": "contracts/RATToken.sol",
  "abi": [
    {
      "inputs": [
        {
          "internalType": "address",
          "name": "initialOwner",
          "type": "address"
        }
      ],
      "stateMutability": "nonpayable",
      "type": "constructor"
    },
    {
      "inputs": [
        {
          "internalType": "address",
          "name": "spender",
          "type": "address"
        },
        {
          "internalType": "uint256",
          "name": "allowance",
          "type": "uint256"
        },
        {
          "internalType": "uint256",
          "name": "needed",
          "type": "uint256"
        }
      ],
      "name": "ERC20InsufficientAllowance",
      "type": "error"
    },
    {
      "inputs": [
        {
          "internalType": "address",
          "name": "sender",
          "type": "address"
        },
        {
          "internalType": "uint256",
          "name": "balance",
          "type": "uint256"
        },
        {
          "internalType": "uint256",
          "name": "needed",
          "type": "uint256"
        }
      ],
      "name": "ERC20InsufficientBalance",
      "type": "error"
    },
    {
      "inputs": [
        {
          "internalType": "address",
          "name": "approver",
          "type": "address"
        }
      ],
      "name": "ERC20InvalidApprover",
      "type": "error"
    },
    {
      "inputs": [
        {
          "internalType": "address",
          "name": "receiver",
          "type": "address"
        }
      ],
      "name": "ERC20InvalidReceiver",
      "type": "error"
    },
    {
      "inputs": [
        {
          "internalType": "address",
          "name": "sender",
          "type": "address"
        }
      ],
      "name": "ERC20InvalidSender",
      "type": "error"
    },
    {
      "inputs": [
        {
          "internalType": "address",
          "name": "spender",
          "type": "address"
        }
      ],
      "name": "ERC20InvalidSpender",
      "type": "error"
    },
    {
      "inputs": [],
      "name": "EnforcedPause",
      "type": "error"
    },
    {
      "inputs": [],
      "name": "ExpectedPause",
      "type": "error"
    },
    {
      "inputs": [
        {
          "internalType": "address",
          "name": "owner",
          "type": "address"
        }
      ],
      "name": "OwnableInvalidOwner",
      "type": "error"
    },
    {
      "inputs": [
        {
          "internalType": "address",
          "name": "account",
          "type": "address"
        }
      ],
      "name": "OwnableUnauthorizedAccount",
      "type": "error"
    },
    {
      "anonymous": false,
      "inputs": [
        {
          "indexed": true,
          "internalType": "address",
          "name": "owner",
          "type": "address"
        },
        {
          "indexed": true,
          "internalType": "address",
          "name": "spender",
          "type": "address"
        },
        {
          "indexed": false,
          "internalType": "uint256",
          "name": "value",
          "type": "uint256"
        }
      ],
      "name": "Approval",
      "type": "event"
    },
    {
      "anonymous": false,
      "inputs": [
        {
          "indexed": true,
          "internalType": "address",
          "name": "previousOwner",
          "type": "address"
        },
        {
          "indexed": true,
          "internalType": "address",
          "name": "newOwner",
          "type": "address"
        }
      ],
      "name": "OwnershipTransferred",
      "type": "event"
    },
    {
      "anonymous": false,
      "inputs": [
        {
          "indexed": false,
          "internalType": "address",
          "name": "account",
          "type": "address"
        }
      ],
      "name": "Paused",
      "type": "event"
    },
    {
      "anonymous": false,
      "inputs": [
        {
          "indexed": true,
          "internalType": "address",
          "name": "from",
          "type": "address"
        },
        {
          "indexed": false,
          "internalType": "uint256",
          "name": "amount",
          "type": "uint256"
        },
        {
          "indexed": false,
          "internalType": "string",
          "name": "reason",
          "type": "string"
        }
      ],
      "name": "TokensBurned",
      "type": "event"
    },
    {
      "anonymous": false,
      "inputs": [
        {
          "indexed": true,
          "internalType": "address",
          "name": "to",
          "type": "address"
        },
        {
          "indexed": false,
          "internalType": "uint256",
          "name": "amount",
          "type": "uint256"
        },
        {
          "indexed": false,
          "internalType": "string",
          "name": "reason",
          "type": "string"
        }
      ],
      "name": "TokensMinted",
      "type": "event"
    },
    {
      "anonymous": false,
      "inputs": [
        {
          "indexed": true,
          "internalType": "address",
          "name": "from",
          "type": "address"
        },
        {
          "indexed": true,
          "internalType": "address",
          "name": "to",
          "type": "address"
        },
        {
          "indexed": false,
          "internalType": "uint256",
          "name": "value",
          "type": "uint256"
        }
      ],
      "name": "Transfer",
      "type": "event"
    },
    {
      "anonymous": false,
      "inputs": [
        {
          "indexed": false,
          "internalType": "address",
          "name": "account",
          "type": "address"
        }
      ],
      "name": "Unpaused",
      "type": "event"
    },
    {
      "inputs": [],
      "name": "MAX_SUPPLY",
      "outputs": [
        {
          "internalType": "uint256",
          "name": "",
          "type": "uint256"
        }
      ],
      "stateMutability": "view",
      "type": "function"
    },
    {
      "inputs": [
        {
          "internalType": "address",
          "name": "owner",
          "type": "address"
        },
        {
          "internalType": "address",
          "name": "spender",
          "type": "address"
        }
      ],
      "name": "allowance",
      "outputs": [
        {
          "internalType": "uint256",
          "name": "",
          "type": "uint256"
        }
      ],
      "stateMutability": "view",
      "type": "function"
    },
    {
      "inputs": [
        {
          "internalType": "address",
          "name": "spender",
          "type": "address"
        },
        {
          "internalType": "uint256",
          "name": "value",
          "type": "uint256"
        }
      ],
      "name": "approve",
      "outputs": [
        {
          "internalType": "bool",
          "name": "",
          "type": "bool"
        }
      ],
      "stateMutability": "nonpayable",
      "type": "function"
    },
    {
      "inputs": [
        {
          "internalType": "address",
          "name": "account",
          "type": "address"
        }
      ],
      "name": "balanceOf",
      "outputs": [
        {
          "internalType": "uint256",
          "name": "",
          "type": "uint256"
        }
      ],
      "stateMutability": "view",
      "type": "function"
    },
    {
      "inputs": [
        {
          "internalType": "uint256",
          "name": "amount",
          "type": "uint256"
        },
        {
          "internalType": "string",
          "name": "reason",
          "type": "string"
        }
      ],
      "name": "burn",
      "outputs": [],
      "stateMutability": "nonpayable",
      "type": "function"
    },
    {
      "inputs": [],
      "name": "decimals",
      "outputs": [
        {
          "internalType": "uint8",
          "name": "",
          "type": "uint8"
        }
      ],
      "stateMutability": "view",
      "type": "function"
    },
    {
      "inputs": [],
      "name": "getRemainingMintableSupply",
      "outputs": [
        {
          "internalType": "uint256",
          "name": "",
          "type": "uint256"
        }
      ],
      "stateMutability": "view",
      "type": "function"
    },
    {
      "inputs": [
        {
          "internalType": "address",
          "name": "to",
          "type": "address"
        },
        {
          "internalType": "uint256",
          "name": "amount",
          "type": "uint256"
        },
        {
          "internalType": "string",
          "name": "reason",
          "type": "string"
        }
      ],
      "name": "mint",
      "outputs": [],
      "stateMutability": "nonpayable",
      "type": "function"
    },
    {
      "inputs": [],
      "name": "name",
      "outputs": [
        {
          "internalType": "string",
          "name": "",
          "type": "string"
        }
      ],
      "stateMutability": "view",
      "type": "function"
    },
    {
      "inputs": [],
      "name": "owner",
      "outputs": [
        {
          "internalType": "address",
          "name": "",
          "type": "address"
        }
      ],
      "stateMutability": "view",
      "type": "function"
    },
    {
      "inputs": [],
      "name": "pause",
      "outputs": [],
      "stateMutability": "nonpayable",
      "type": "function"
    },
    {
      "inputs": [],
      "name": "paused",
      "outputs": [
        {
          "internalType": "bool",
          "name": "",
          "type": "bool"
        }
      ],
      "stateMutability": "view",
      "type": "function"
    },
    {
      "inputs": [],
      "name": "renounceOwnership",
      "outputs": [],
      "stateMutability": "nonpayable",
      "type": "function"
    },
    {
      "inputs": [],
      "name": "symbol",
      "outputs": [
        {
          "internalType": "string",
          "name": "",
          "type": "string"
        }
      ],
      "stateMutability": "view",
      "type": "function"
    },
    {
      "inputs": [],
      "name": "totalMinted",
      "outputs": [
        {
          "internalType": "uint256",
          "name": "",
          "type": "uint256"
        }
      ],
      "stateMutability": "view",
      "type": "function"
    },
    {
      "inputs": [],
      "name": "totalSupply",
      "outputs": [
        {
          "internalType": "uint256",
          "name": "",
          "type": "uint256"
        }
      ],
      "stateMutability": "view",
      "type": "function"
    },
    {
      "inputs": [
        {
          "internalType": "address",
          "name": "to",
          "type": "address"
        },
        {
          "internalType": "uint256",
          "name": "value",
          "type": "uint256"
        }
      ],
      "name": "transfer",
      "outputs": [
        {
          "internalType": "bool",
          "name": "",
          "type": "bool"
        }
      ],
      "stateMutability": "nonpayable",
      "type": "function"
    },
    {
      "inputs": [
        {
          "internalType": "address",
          "name": "from",
          "type": "address"
        },
        {
          "internalType": "address",
          "name": "to",
          "type": "address"
        },
        {
          "internalType": "uint256",
          "name": "value",
          "type": "uint256"
        }
      ],
      "name": "transferFrom",
      "outputs": [
        {
          "internalType": "bool",
          "name": "",
          "type": "bool"
        }
      ],
      "stateMutability": "nonpayable",
      "type": "function"
    },
    {
      "inputs": [
        {
          "internalType": "address",
          "name": "newOwner",
          "type": "address"
        }
      ],
      "name": "transferOwnership",
      "outputs": [],
      "stateMutability": "nonpayable",
      "type": "function"
    },
    {
      "inputs": [],
      "name": "unpause",
      "outputs": [],
      "stateMutability": "nonpayable",
      "type": "function"
    }
  ],
  "bytecode": "0x60806040523480156200001157600080fd5b50604051620014473803806200144783398101604081905262000034916200037c565b806040518060400160405280601081526020016f2932b0b61020b9b9b2ba102a37b5b2b760811b8152506040518060400160405280600381526020016214905560ea1b81525081600390816200008b919062000452565b5060046200009a828262000452565b5050506001600160a01b038116620000cd57604051631e4fbdf760e01b8152600060048201526024015b60405180910390fd5b620000d88162000168565b506a52b7d2dcc80cd2e4000000620000f18282620001ba565b80600681905550816001600160a01b03167f9d89e36eadf856db0ad9ffb5a569e07f95634dddd9501141ecf04820484ad0dc8260405162000158918152604060208201819052600c908201526b125b9a5d1a585b081b5a5b9d60a21b606082015260800190565b60405180910390a2505062000546565b600580546001600160a01b038381166001600160a01b0319831681179093556040519116919082907f8be0079c531659141344cd1fd0a4f28419497f9722a3daafe3b4186f6b6457e090600090a35050565b6001600160a01b038216620001e65760405163ec442f0560e01b815260006004820152602401620000c4565b620001f460008383620001f8565b5050565b6200020262000214565b6200020f83838362000249565b505050565b62000228600554600160a01b900460ff1690565b15620002475760405163d93c066560e01b815260040160405180910390fd5b565b6001600160a01b038316620002785780600260008282546200026c91906200051e565b90915550620002ec9050565b6001600160a01b03831660009081526020819052604090205481811015620002cd5760405163391434e360e21b81526001600160a01b03851660048201526024810182905260448101839052606401620000c4565b6001600160a01b03841660009081526020819052604090209082900390555b6001600160a01b0382166200030a5760028054829003905562000329565b6001600160a01b03821660009081526020819052604090208054820190555b816001600160a01b0316836001600160a01b03167fddf252ad1be2c89b69c2b068fc378daa952ba7f163c4a11628f55a4df523b3ef836040516200036f91815260200190565b60405180910390a3505050565b6000602082840312156200038f57600080fd5b81516001600160a01b0381168114620003a757600080fd5b9392505050565b634e487b7160e01b600052604160045260246000fd5b600181811c90821680620003d957607f821691505b602082108103620003fa57634e487b7160e01b600052602260045260246000fd5b50919050565b601f8211156200020f57600081815260208120601f850160051c81016020861015620004295750805b601f850160051c820191505b818110156200044a5782815560010162000435565b505050505050565b81516001600160401b038111156200046e576200046e620003ae565b62000486816200047f8454620003c4565b8462000400565b602080601f831160018114620004be5760008415620004a55750858301515b600019600386901b1c1916600185901b1785556200044a565b600085815260208120601f198616915b82811015620004ef57888601518255948401946001909101908401620004ce565b50858210156200050e5787850151600019600388901b60f8161c191681555b5050505050600190811b01905550565b808201808211156200054057634e487b7160e01b600052601160045260246000fd5b92915050565b610ef180620005566000396000f3fe608060405234801561001057600080fd5b506004361061012c5760003560e01c8063715018a6116100ad578063a2309ff811610071578063a2309ff81461024c578063a9059cbb14610255578063d3fc986414610268578063dd62ed3e1461027b578063f2fde38b146102b457600080fd5b8063715018a6146102065780637641e6f31461020e5780638456cb59146102215780638da5cb5b1461022957806395d89b411461024457600080fd5b806332cb6b0c116100f457806332cb6b0c146101a65780633f4ba83a146101b95780635c975abb146101c35780635cf32b37146101d557806370a08231146101dd57600080fd5b806306fdde0314610131578063095ea7b31461014f57806318160ddd1461017257806323b872dd14610184578063313ce56714610197575b600080fd5b6101396102c7565b6040516101469190610bf9565b60405180910390f35b61016261015d366004610c2f565b610359565b6040519015158152602001610146565b6002545b604051908152602001610146565b610162610192366004610c59565b610373565b60405160128152602001610146565b6101766b033b2e3c9fd0803ce800000081565b6101c1610397565b005b600554600160a01b900460ff16610162565b6101766103a9565b6101766101eb366004610c95565b6001600160a01b031660009081526020819052604090205490565b6101c16103ca565b6101c161021c366004610d53565b6103dc565b6101c16104e8565b6005546040516001600160a01b039091168152602001610146565b6101396104f8565b61017660065481565b610162610263366004610c2f565b610507565b6101c1610276366004610d9a565b610515565b610176610289366004610df1565b6001600160a01b03918216600090815260016020908152604080832093909416825291909152205490565b6101c16102c2366004610c95565b610697565b6060600380546102d690610e24565b80601f016020809104026020016040519081016040528092919081815260200182805461030290610e24565b801561034f5780601f106103245761010080835404028352916020019161034f565b820191906000526020600020905b81548152906001019060200180831161033257829003601f168201915b5050505050905090565b6000336103678185856106d5565b60019150505b92915050565b6000336103818582856106e7565b61038c858585610766565b506001949350505050565b61039f6107c5565b6103a76107f2565b565b60006006546b033b2e3c9fd0803ce80000006103c59190610e74565b905090565b6103d26107c5565b6103a76000610847565b600082116104315760405162461bcd60e51b815260206004820152601d60248201527f416d6f756e74206d7573742062652067726561746572207468616e203000000060448201526064015b60405180910390fd5b336000908152602081905260409020548211156104875760405162461bcd60e51b8152602060048201526014602482015273496e73756666696369656e742062616c616e636560601b6044820152606401610428565b6104913383610899565b81600660008282546104a39190610e74565b909155505060405133907ffad31924d655455395c87544c8aa1ffdb5a7505a22a3c2e03f28003b6556a75f906104dc9085908590610e87565b60405180910390a25050565b6104f06107c5565b6103a76108d3565b6060600480546102d690610e24565b600033610367818585610766565b61051d6107c5565b6001600160a01b0383166105735760405162461bcd60e51b815260206004820152601b60248201527f43616e6e6f74206d696e7420746f207a65726f206164647265737300000000006044820152606401610428565b600082116105c35760405162461bcd60e51b815260206004820152601d60248201527f416d6f756e74206d7573742062652067726561746572207468616e20300000006044820152606401610428565b6b033b2e3c9fd0803ce8000000826006546105de9190610ea8565b111561062c5760405162461bcd60e51b815260206004820152601760248201527f576f756c6420657863656564206d617820737570706c790000000000000000006044820152606401610428565b6106368383610916565b81600660008282546106489190610ea8565b92505081905550826001600160a01b03167f9d89e36eadf856db0ad9ffb5a569e07f95634dddd9501141ecf04820484ad0dc838360405161068a929190610e87565b60405180910390a2505050565b61069f6107c5565b6001600160a01b0381166106c957604051631e4fbdf760e01b815260006004820152602401610428565b6106d281610847565b50565b6106e2838383600161094c565b505050565b6001600160a01b03838116600090815260016020908152604080832093861683529290522054600019811015610760578181101561075157604051637dc7a0d960e11b81526001600160a01b03841660048201526024810182905260448101839052606401610428565b6107608484848403600061094c565b50505050565b6001600160a01b03831661079057604051634b637e8f60e11b815260006004820152602401610428565b6001600160a01b0382166107ba5760405163ec442f0560e01b815260006004820152602401610428565b6106e2838383610a21565b6005546001600160a01b031633146103a75760405163118cdaa760e01b8152336004820152602401610428565b6107fa610a34565b6005805460ff60a01b191690557f5db9ee0a495bf2e6ff9c91a7834c1ba4fdd244a5e8aa4e537bd38aeae4b073aa335b6040516001600160a01b03909116815260200160405180910390a1565b600580546001600160a01b038381166001600160a01b0319831681179093556040519116919082907f8be0079c531659141344cd1fd0a4f28419497f9722a3daafe3b4186f6b6457e090600090a35050565b6001600160a01b0382166108c357604051634b637e8f60e11b815260006004820152602401610428565b6108cf82600083610a21565b5050565b6108db610a5e565b6005805460ff60a01b1916600160a01b1790557f62e78cea01bee320cd4e420270b5ea74000d11b0c9f74754ebdbfc544b05a25861082a3390565b6001600160a01b0382166109405760405163ec442f0560e01b815260006004820152602401610428565b6108cf60008383610a21565b6001600160a01b0384166109765760405163e602df0560e01b815260006004820152602401610428565b6001600160a01b0383166109a057604051634a1406b160e11b815260006004820152602401610428565b6001600160a01b038085166000908152600160209081526040808320938716835292905220829055801561076057826001600160a01b0316846001600160a01b03167f8c5be1e5ebec7d5bd14f71427d1e84f3dd0314c0f7b2291e5b200ac8c7c3b92584604051610a1391815260200190565b60405180910390a350505050565b610a29610a5e565b6106e2838383610a89565b600554600160a01b900460ff166103a757604051638dfc202b60e01b815260040160405180910390fd5b600554600160a01b900460ff16156103a75760405163d93c066560e01b815260040160405180910390fd5b6001600160a01b038316610ab4578060026000828254610aa99190610ea8565b90915550610b269050565b6001600160a01b03831660009081526020819052604090205481811015610b075760405163391434e360e21b81526001600160a01b03851660048201526024810182905260448101839052606401610428565b6001600160a01b03841660009081526020819052604090209082900390555b6001600160a01b038216610b4257600280548290039055610b61565b6001600160a01b03821660009081526020819052604090208054820190555b816001600160a01b0316836001600160a01b03167fddf252ad1be2c89b69c2b068fc378daa952ba7f163c4a11628f55a4df523b3ef83604051610ba691815260200190565b60405180910390a3505050565b6000815180845260005b81811015610bd957602081850181015186830182015201610bbd565b506000602082860101526020601f19601f83011685010191505092915050565b602081526000610c0c6020830184610bb3565b9392505050565b80356001600160a01b0381168114610c2a57600080fd5b919050565b60008060408385031215610c4257600080fd5b610c4b83610c13565b946020939093013593505050565b600080600060608486031215610c6e57600080fd5b610c7784610c13565b9250610c8560208501610c13565b9150604084013590509250925092565b600060208284031215610ca757600080fd5b610c0c82610c13565b634e487b7160e01b600052604160045260246000fd5b600082601f830112610cd757600080fd5b813567ffffffffffffffff80821115610cf257610cf2610cb0565b604051601f8301601f19908116603f01168101908282118183101715610d1a57610d1a610cb0565b81604052838152866020858801011115610d3357600080fd5b836020870160208301376000602085830101528094505050505092915050565b60008060408385031215610d6657600080fd5b82359150602083013567ffffffffffffffff811115610d8457600080fd5b610d9085828601610cc6565b9150509250929050565b600080600060608486031215610daf57600080fd5b610db884610c13565b925060208401359150604084013567ffffffffffffffff811115610ddb57600080fd5b610de786828701610cc6565b9150509250925092565b60008060408385031215610e0457600080fd5b610e0d83610c13565b9150610e1b60208401610c13565b90509250929050565b600181811c90821680610e3857607f821691505b602082108103610e5857634e487b7160e01b600052602260045260246000fd5b50919050565b634e487b7160e01b600052601160045260246000fd5b8181038181111561036d5761036d610e5e565b828152604060208201526000610ea06040830184610bb3565b949350505050565b8082018082111561036d5761036d610e5e56fea2646970667358221220b667557a056a35b740f89582a881e619ee166a88a4335cf328f6f3558c09bbb664736f6c63430008140033",
  "linkReferences": {},
  "deployedLinkReferences": {}
}