{
  "_format": "hh-sol-artifact-1",
  "contractName": "PriceOracle",
  "sourceName": "contracts/PriceOracle.sol",
  "abi": [
    {
      "inputs": [
        {
          "internalType": "address",
          "name": "initialOwner",
          "type": "address"
        }
      ],
      "stateMutability": "nonpayable",
      "type": "constructor"
    },
    {
      "inputs": [
        {
          "internalType": "address",
          "name": "owner",
          "type": "address"
        }
      ],
      "name": "OwnableInvalidOwner",
      "type": "error"
    },
    {
      "inputs": [
        {
          "internalType": "address",
          "name": "account",
          "type": "address"
        }
      ],
      "name": "OwnableUnauthorizedAccount",
      "type": "error"
    },
    {
      "anonymous": false,
      "inputs": [
        {
          "indexed": true,
          "internalType": "address",
          "name": "previousOwner",
          "type": "address"
        },
        {
          "indexed": true,
          "internalType": "address",
          "name": "newOwner",
          "type": "address"
        }
      ],
      "name": "OwnershipTransferred",
      "type": "event"
    },
    {
      "anonymous": false,
      "inputs": [
        {
          "indexed": true,
          "internalType": "string",
          "name": "asset",
          "type": "string"
        },
        {
          "indexed": false,
          "internalType": "uint256",
          "name": "price",
          "type": "uint256"
        },
        {
          "indexed": false,
          "internalType": "uint256",
          "name": "timestamp",
          "type": "uint256"
        }
      ],
      "name": "PriceUpdated",
      "type": "event"
    },
    {
      "anonymous": false,
      "inputs": [
        {
          "indexed": true,
          "internalType": "address",
          "name": "updater",
          "type": "address"
        },
        {
          "indexed": false,
          "internalType": "bool",
          "name": "authorized",
          "type": "bool"
        }
      ],
      "name": "UpdaterAuthorized",
      "type": "event"
    },
    {
      "inputs": [],
      "name": "PRICE_STALENESS_THRESHOLD",
      "outputs": [
        {
          "internalType": "uint256",
          "name": "",
          "type": "uint256"
        }
      ],
      "stateMutability": "view",
      "type": "function"
    },
    {
      "inputs": [
        {
          "internalType": "address",
          "name": "",
          "type": "address"
        }
      ],
      "name": "authorizedUpdaters",
      "outputs": [
        {
          "internalType": "bool",
          "name": "",
          "type": "bool"
        }
      ],
      "stateMutability": "view",
      "type": "function"
    },
    {
      "inputs": [
        {
          "internalType": "string",
          "name": "asset",
          "type": "string"
        }
      ],
      "name": "getPrice",
      "outputs": [
        {
          "internalType": "uint256",
          "name": "price",
          "type": "uint256"
        }
      ],
      "stateMutability": "view",
      "type": "function"
    },
    {
      "inputs": [
        {
          "internalType": "string",
          "name": "asset",
          "type": "string"
        }
      ],
      "name": "isPriceAvailable",
      "outputs": [
        {
          "internalType": "bool",
          "name": "exists",
          "type": "bool"
        },
        {
          "internalType": "bool",
          "name": "isFresh",
          "type": "bool"
        }
      ],
      "stateMutability": "view",
      "type": "function"
    },
    {
      "inputs": [],
      "name": "owner",
      "outputs": [
        {
          "internalType": "address",
          "name": "",
          "type": "address"
        }
      ],
      "stateMutability": "view",
      "type": "function"
    },
    {
      "inputs": [],
      "name": "renounceOwnership",
      "outputs": [],
      "stateMutability": "nonpayable",
      "type": "function"
    },
    {
      "inputs": [
        {
          "internalType": "address",
          "name": "updater",
          "type": "address"
        },
        {
          "internalType": "bool",
          "name": "authorized",
          "type": "bool"
        }
      ],
      "name": "setUpdaterAuthorization",
      "outputs": [],
      "stateMutability": "nonpayable",
      "type": "function"
    },
    {
      "inputs": [
        {
          "internalType": "address",
          "name": "newOwner",
          "type": "address"
        }
      ],
      "name": "transferOwnership",
      "outputs": [],
      "stateMutability": "nonpayable",
      "type": "function"
    },
    {
      "inputs": [
        {
          "internalType": "string",
          "name": "asset",
          "type": "string"
        },
        {
          "internalType": "uint256",
          "name": "price",
          "type": "uint256"
        }
      ],
      "name": "updatePrice",
      "outputs": [],
      "stateMutability": "nonpayable",
      "type": "function"
    }
  ],
  "bytecode": "0x608060405234801561001057600080fd5b5060405161097738038061097783398101604081905261002f916100df565b806001600160a01b03811661005e57604051631e4fbdf760e01b81526000600482015260240160405180910390fd5b6100678161008f565b506001600160a01b03166000908152600260205260409020805460ff1916600117905561010f565b600080546001600160a01b038381166001600160a01b0319831681178455604051919092169283917f8be0079c531659141344cd1fd0a4f28419497f9722a3daafe3b4186f6b6457e09190a35050565b6000602082840312156100f157600080fd5b81516001600160a01b038116811461010857600080fd5b9392505050565b6108598061011e6000396000f3fe608060405234801561001057600080fd5b50600436106100935760003560e01c80638da5cb5b116100665780638da5cb5b146101055780638ff29cfe14610120578063d5140f6e14610153578063f25b9caa14610166578063f2fde38b1461017057600080fd5b80634a432a4614610098578063524f3889146100ad578063715018a6146100d3578063832d7735146100db575b600080fd5b6100ab6100a63660046106d1565b610183565b005b6100c06100bb366004610716565b610338565b6040519081526020015b60405180910390f35b6100ab610430565b6100ee6100e9366004610716565b610444565b6040805192151583529015156020830152016100ca565b6000546040516001600160a01b0390911681526020016100ca565b61014361012e36600461076f565b60026020526000908152604090205460ff1681565b60405190151581526020016100ca565b6100ab610161366004610791565b6104bd565b6100c06201518081565b6100ab61017e36600461076f565b610573565b3360009081526002602052604090205460ff16806101ab57506000546001600160a01b031633145b6101ed5760405162461bcd60e51b815260206004820152600e60248201526d139bdd08185d5d1a1bdc9a5e995960921b60448201526064015b60405180910390fd5b60008251116102365760405162461bcd60e51b815260206004820152601560248201527441737365742063616e6e6f7420626520656d70747960581b60448201526064016101e4565b600081116102865760405162461bcd60e51b815260206004820152601c60248201527f5072696365206d7573742062652067726561746572207468616e20300000000060448201526064016101e4565b6040518060600160405280828152602001428152602001600115158152506001836040516102b491906107cd565b9081526040805160209281900383018120845181559284015160018401559201516002909101805460ff19169115159190911790556102f49083906107cd565b60408051918290038220838352426020840152917f6e838f2a03741f5f2aff5480963b672fb0dd8430a4dc75db9b67ce009733c9fe91015b60405180910390a25050565b60008060018360405161034b91906107cd565b908152604080519182900360209081018320606084018352805484526001810154918401919091526002015460ff1615159082018190529091506103d15760405162461bcd60e51b815260206004820152601960248201527f4173736574207072696365206e6f7420617661696c61626c650000000000000060448201526064016101e4565b620151808160200151426103e591906107fc565b11156104295760405162461bcd60e51b815260206004820152601360248201527250726963652064617461206973207374616c6560681b60448201526064016101e4565b5192915050565b6104386105b1565b61044260006105de565b565b600080600060018460405161045991906107cd565b908152604080519182900360209081018320606084018352805484526001810154918401919091526002015460ff1615801591830182905290945090915083906104b55750620151808160200151426104b291906107fc565b11155b915050915091565b6104c56105b1565b6001600160a01b03821661051b5760405162461bcd60e51b815260206004820152601760248201527f496e76616c69642075706461746572206164647265737300000000000000000060448201526064016101e4565b6001600160a01b038216600081815260026020908152604091829020805460ff191685151590811790915591519182527f5c001b1d70af3e0a09eed53bc0588d57fec6d23196319ba29c6313eb3321273c910161032c565b61057b6105b1565b6001600160a01b0381166105a557604051631e4fbdf760e01b8152600060048201526024016101e4565b6105ae816105de565b50565b6000546001600160a01b031633146104425760405163118cdaa760e01b81523360048201526024016101e4565b600080546001600160a01b038381166001600160a01b0319831681178455604051919092169283917f8be0079c531659141344cd1fd0a4f28419497f9722a3daafe3b4186f6b6457e09190a35050565b634e487b7160e01b600052604160045260246000fd5b600082601f83011261065557600080fd5b813567ffffffffffffffff808211156106705761067061062e565b604051601f8301601f19908116603f011681019082821181831017156106985761069861062e565b816040528381528660208588010111156106b157600080fd5b836020870160208301376000602085830101528094505050505092915050565b600080604083850312156106e457600080fd5b823567ffffffffffffffff8111156106fb57600080fd5b61070785828601610644565b95602094909401359450505050565b60006020828403121561072857600080fd5b813567ffffffffffffffff81111561073f57600080fd5b61074b84828501610644565b949350505050565b80356001600160a01b038116811461076a57600080fd5b919050565b60006020828403121561078157600080fd5b61078a82610753565b9392505050565b600080604083850312156107a457600080fd5b6107ad83610753565b9150602083013580151581146107c257600080fd5b809150509250929050565b6000825160005b818110156107ee57602081860181015185830152016107d4565b506000920191825250919050565b8181038181111561081d57634e487b7160e01b600052601160045260246000fd5b9291505056fea2646970667358221220ddbaec8ea99b2e1427fbed9ae85e7821f2f579020001b21bae41fa2b485f18cc64736f6c63430008140033",
  "linkReferences": {},
  "deployedLinkReferences": {}
}